{
  "contractName": "LicenseManager",
  "abi": [
    {
      "constant": true,
      "inputs": [
        {
          "name": "_productId",
          "type": "uint256"
        }
      ],
      "name": "nameOf",
      "outputs": [
        {
          "name": "",
          "type": "string"
        }
      ],
      "payable": false,
      "stateMutability": "view",
      "type": "function"
    },
    {
      "constant": true,
      "inputs": [
        {
          "name": "_productId",
          "type": "uint256"
        }
      ],
      "name": "amountSold",
      "outputs": [
        {
          "name": "",
          "type": "uint256"
        }
      ],
      "payable": false,
      "stateMutability": "view",
      "type": "function"
    },
    {
      "constant": true,
      "inputs": [
        {
          "name": "",
          "type": "uint256"
        }
      ],
      "name": "licenses",
      "outputs": [
        {
          "name": "productId",
          "type": "uint256"
        },
        {
          "name": "attributes",
          "type": "uint256"
        },
        {
          "name": "issuedTime",
          "type": "uint256"
        },
        {
          "name": "expirationTime",
          "type": "uint256"
        },
        {
          "name": "affiliate",
          "type": "address"
        },
        {
          "name": "name",
          "type": "string"
        }
      ],
      "payable": false,
      "stateMutability": "view",
      "type": "function"
    },
    {
      "constant": true,
      "inputs": [],
      "name": "authenticate",
      "outputs": [
        {
          "name": "_pseudo",
          "type": "bytes32"
        }
      ],
      "payable": false,
      "stateMutability": "view",
      "type": "function"
    },
    {
      "constant": true,
      "inputs": [
        {
          "name": "_productId",
          "type": "uint256"
        }
      ],
      "name": "availableAmountOf",
      "outputs": [
        {
          "name": "",
          "type": "uint256"
        }
      ],
      "payable": false,
      "stateMutability": "view",
      "type": "function"
    },
    {
      "constant": true,
      "inputs": [
        {
          "name": "",
          "type": "uint256"
        }
      ],
      "name": "productIdToVendor",
      "outputs": [
        {
          "name": "",
          "type": "address"
        }
      ],
      "payable": false,
      "stateMutability": "view",
      "type": "function"
    },
    {
      "constant": false,
      "inputs": [
        {
          "name": "_pseudo",
          "type": "bytes32"
        }
      ],
      "name": "create",
      "outputs": [],
      "payable": false,
      "stateMutability": "nonpayable",
      "type": "function"
    },
    {
      "constant": true,
      "inputs": [
        {
          "name": "",
          "type": "uint256"
        }
      ],
      "name": "products",
      "outputs": [
        {
          "name": "id",
          "type": "uint256"
        },
        {
          "name": "price",
          "type": "uint256"
        },
        {
          "name": "available",
          "type": "uint256"
        },
        {
          "name": "supply",
          "type": "uint256"
        },
        {
          "name": "sold",
          "type": "uint256"
        },
        {
          "name": "interval",
          "type": "uint256"
        },
        {
          "name": "name",
          "type": "string"
        },
        {
          "name": "renewable",
          "type": "bool"
        }
      ],
      "payable": false,
      "stateMutability": "view",
      "type": "function"
    },
    {
      "constant": true,
      "inputs": [
        {
          "name": "",
          "type": "uint256"
        }
      ],
      "name": "licenseToOwner",
      "outputs": [
        {
          "name": "",
          "type": "address"
        }
      ],
      "payable": false,
      "stateMutability": "view",
      "type": "function"
    },
    {
      "constant": false,
      "inputs": [],
      "name": "destroy",
      "outputs": [],
      "payable": false,
      "stateMutability": "nonpayable",
      "type": "function"
    },
    {
      "constant": true,
      "inputs": [
        {
          "name": "_productId",
          "type": "uint256"
        }
      ],
      "name": "supplyOf",
      "outputs": [
        {
          "name": "",
          "type": "uint256"
        }
      ],
      "payable": false,
      "stateMutability": "view",
      "type": "function"
    },
    {
      "constant": true,
      "inputs": [
        {
          "name": "",
          "type": "address"
        }
      ],
      "name": "vendorProductCount",
      "outputs": [
        {
          "name": "",
          "type": "uint256"
        }
      ],
      "payable": false,
      "stateMutability": "view",
      "type": "function"
    },
    {
      "constant": true,
      "inputs": [
        {
          "name": "",
          "type": "address"
        }
      ],
      "name": "users",
      "outputs": [
        {
          "name": "",
          "type": "bytes32"
        }
      ],
      "payable": false,
      "stateMutability": "view",
      "type": "function"
    },
    {
      "constant": true,
      "inputs": [
        {
          "name": "_productId",
          "type": "uint256"
        }
      ],
      "name": "intervalOf",
      "outputs": [
        {
          "name": "",
          "type": "uint256"
        }
      ],
      "payable": false,
      "stateMutability": "view",
      "type": "function"
    },
    {
      "constant": true,
      "inputs": [
        {
          "name": "",
          "type": "address"
        }
      ],
      "name": "ownerLicenseCount",
      "outputs": [
        {
          "name": "",
          "type": "uint256"
        }
      ],
      "payable": false,
      "stateMutability": "view",
      "type": "function"
    },
    {
      "constant": true,
      "inputs": [
        {
          "name": "_productId",
          "type": "uint256"
        }
      ],
      "name": "priceOf",
      "outputs": [
        {
          "name": "",
          "type": "uint256"
        }
      ],
      "payable": false,
      "stateMutability": "view",
      "type": "function"
    },
    {
      "constant": true,
      "inputs": [
        {
          "name": "_address",
          "type": "address"
        }
      ],
      "name": "get",
      "outputs": [
        {
          "name": "_pseudo",
          "type": "bytes32"
        }
      ],
      "payable": false,
      "stateMutability": "view",
      "type": "function"
    },
    {
      "constant": true,
      "inputs": [
        {
          "name": "",
          "type": "uint256"
        }
      ],
      "name": "productIds",
      "outputs": [
        {
          "name": "",
          "type": "uint256"
        }
      ],
      "payable": false,
      "stateMutability": "view",
      "type": "function"
    },
    {
      "constant": true,
      "inputs": [
        {
          "name": "_productId",
          "type": "uint256"
        }
      ],
      "name": "isRenewable",
      "outputs": [
        {
          "name": "",
          "type": "bool"
        }
      ],
      "payable": false,
      "stateMutability": "view",
      "type": "function"
    },
    {
      "constant": false,
      "inputs": [
        {
          "name": "_id",
          "type": "uint256"
        },
        {
          "name": "_price",
          "type": "uint256"
        },
        {
          "name": "_available",
          "type": "uint256"
        },
        {
          "name": "_initialSupply",
          "type": "uint256"
        },
        {
          "name": "_interval",
          "type": "uint256"
        },
        {
          "name": "_name",
          "type": "string"
        },
        {
          "name": "_renewable",
          "type": "bool"
        }
      ],
      "name": "registerProduct",
      "outputs": [],
      "payable": false,
      "stateMutability": "nonpayable",
      "type": "function"
    },
    {
      "constant": true,
      "inputs": [
        {
          "name": "",
          "type": "address"
        },
        {
          "name": "",
          "type": "uint256"
        }
      ],
      "name": "ownerToProductCount",
      "outputs": [
        {
          "name": "",
          "type": "uint256"
        }
      ],
      "payable": false,
      "stateMutability": "view",
      "type": "function"
    },
    {
      "constant": true,
      "inputs": [
        {
          "name": "_address",
          "type": "address"
        }
      ],
      "name": "exists",
      "outputs": [
        {
          "name": "_exists",
          "type": "bool"
        }
      ],
      "payable": false,
      "stateMutability": "view",
      "type": "function"
    },
    {
      "anonymous": false,
      "inputs": [
        {
          "indexed": true,
          "name": "vendor",
          "type": "address"
        },
        {
          "indexed": true,
          "name": "buyer",
          "type": "address"
        },
        {
          "indexed": false,
          "name": "licenseId",
          "type": "uint256"
        },
        {
          "indexed": false,
          "name": "productId",
          "type": "uint256"
        },
        {
          "indexed": false,
          "name": "attributes",
          "type": "uint256"
        },
        {
          "indexed": false,
          "name": "issuedTime",
          "type": "uint256"
        },
        {
          "indexed": false,
          "name": "expirationTime",
          "type": "uint256"
        },
        {
          "indexed": false,
          "name": "affiliate",
          "type": "address"
        },
        {
          "indexed": false,
          "name": "name",
          "type": "string"
        }
      ],
      "name": "LicenseIssued",
      "type": "event"
    },
    {
      "anonymous": false,
      "inputs": [
        {
          "indexed": false,
          "name": "productId",
          "type": "uint256"
        },
        {
          "indexed": false,
          "name": "price",
          "type": "uint256"
        },
        {
          "indexed": false,
          "name": "available",
          "type": "uint256"
        },
        {
          "indexed": false,
          "name": "supply",
          "type": "uint256"
        },
        {
          "indexed": false,
          "name": "sold",
          "type": "uint256"
        },
        {
          "indexed": false,
          "name": "interval",
          "type": "uint256"
        },
        {
          "indexed": false,
          "name": "name",
          "type": "string"
        },
        {
          "indexed": false,
          "name": "renewable",
          "type": "bool"
        }
      ],
      "name": "ProductCreated",
      "type": "event"
    },
    {
      "anonymous": false,
      "inputs": [
        {
          "indexed": false,
          "name": "productId",
          "type": "uint256"
        },
        {
          "indexed": false,
          "name": "vendor",
          "type": "address"
        },
        {
          "indexed": false,
          "name": "buyer",
          "type": "address"
        }
      ],
      "name": "ProductBought",
      "type": "event"
    },
    {
      "anonymous": false,
      "inputs": [
        {
          "indexed": true,
          "name": "_address",
          "type": "address"
        },
        {
          "indexed": false,
          "name": "_pseudo",
          "type": "bytes32"
        }
      ],
      "name": "UserCreated",
      "type": "event"
    },
    {
      "anonymous": false,
      "inputs": [
        {
          "indexed": true,
          "name": "_address",
          "type": "address"
        }
      ],
      "name": "UserDestroyed",
      "type": "event"
    },
    {
      "constant": true,
      "inputs": [
        {
          "name": "_licenseId",
          "type": "uint256"
        }
      ],
      "name": "licenseNotExpired",
      "outputs": [
        {
          "name": "",
          "type": "bool"
        }
      ],
      "payable": false,
      "stateMutability": "view",
      "type": "function"
    },
    {
      "constant": true,
      "inputs": [
        {
          "name": "_productId",
          "type": "uint256"
        }
      ],
      "name": "isSubscriptionProduct",
      "outputs": [
        {
          "name": "",
          "type": "bool"
        }
      ],
      "payable": false,
      "stateMutability": "view",
      "type": "function"
    },
    {
      "constant": false,
      "inputs": [
        {
          "name": "_productId",
          "type": "uint256"
        },
        {
          "name": "_attributes",
          "type": "uint256"
        },
        {
          "name": "_noOfCycles",
          "type": "uint256"
        },
        {
          "name": "_affiliate",
          "type": "address"
        }
      ],
      "name": "purchaseLicense",
      "outputs": [],
      "payable": false,
      "stateMutability": "nonpayable",
      "type": "function"
    }
  ],
  "bytecode": "0x608060405234801561001057600080fd5b50611498806100206000396000f3006080604052600436106101485763ffffffff7c0100000000000000000000000000000000000000000000000000000000600035041663051a2664811461014d5780630528bb57146101da5780632895d759146102065780633379084514610230578063380c7a67146102f557806355ef3cef1461030a5780636f1ee18d146103225780637368a8ce146103565780637acc0b20146103705780637ced11021461043557806383197ef01461044d5780638806792f1461046257806389d6fb941461047a578063959a8dd9146104a4578063a87430ba146104c5578063b369af71146104e6578063b7eaebd5146104fe578063b9186d7d1461051f578063be77ab8b14610537578063c2bc2efc1461054f578063cb51bba914610570578063cde317af14610588578063de482c4b146105a0578063f47cc73114610610578063f6a3d24e14610634575b600080fd5b34801561015957600080fd5b50610165600435610655565b6040805160208082528351818301528351919283929083019185019080838360005b8381101561019f578181015183820152602001610187565b50505050905090810190601f1680156101cc5780820380516001836020036101000a031916815260200191505b509250505060405180910390f35b3480156101e657600080fd5b506101f26004356106f9565b604080519115158252519081900360200190f35b34801561021257600080fd5b5061021e60043561070c565b60408051918252519081900360200190f35b34801561023c57600080fd5b50610248600435610721565b6040518087815260200186815260200185815260200184815260200183600160a060020a0316600160a060020a0316815260200180602001828103825283818151815260200191508051906020019080838360005b838110156102b557818101518382015260200161029d565b50505050905090810190601f1680156102e25780820380516001836020036101000a031916815260200191505b5097505050505050505060405180910390f35b34801561030157600080fd5b5061021e6107ff565b34801561031657600080fd5b5061021e60043561082a565b34801561032e57600080fd5b5061033a60043561083f565b60408051600160a060020a039092168252519081900360200190f35b34801561036257600080fd5b5061036e60043561085a565b005b34801561037c57600080fd5b506103886004356108a2565b604051808981526020018881526020018781526020018681526020018581526020018481526020018060200183151515158152602001828103825284818151815260200191508051906020019080838360005b838110156103f35781810151838201526020016103db565b50505050905090810190601f1680156104205780820380516001836020036101000a031916815260200191505b50995050505050505050505060405180910390f35b34801561044157600080fd5b5061033a600435610985565b34801561045957600080fd5b5061036e6109a0565b34801561046e57600080fd5b5061021e6004356109ee565b34801561048657600080fd5b5061036e600435602435604435600160a060020a0360643516610a04565b3480156104b057600080fd5b5061021e600160a060020a0360043516610a64565b3480156104d157600080fd5b5061021e600160a060020a0360043516610a76565b3480156104f257600080fd5b5061021e600435610a88565b34801561050a57600080fd5b5061021e600160a060020a0360043516610a9d565b34801561052b57600080fd5b5061021e600435610aaf565b34801561054357600080fd5b506101f2600435610ac4565b34801561055b57600080fd5b5061021e600160a060020a0360043516610b1a565b34801561057c57600080fd5b5061021e600435610b4c565b34801561059457600080fd5b506101f2600435610b6b565b3480156105ac57600080fd5b50604080516020600460a43581810135601f810184900484028501840190955284845261036e9482359460248035956044359560643595608435953695929460c4949201918190840183828082843750949750505050913515159250610b83915050565b34801561061c57600080fd5b5061021e600160a060020a0360043516602435610c32565b34801561064057600080fd5b506101f2600160a060020a0360043516610c4f565b60008181526003602090815260409182902060060180548351601f60026000196101006001861615020190931692909204918201849004840281018401909452808452606093928301828280156106ed5780601f106106c2576101008083540402835291602001916106ed565b820191906000526020600020905b8154815290600101906020018083116106d057829003601f168201915b50505050509050919050565b60008061070583610a88565b1192915050565b60009081526003602052604090206004015490565b600680548290811061072f57fe5b600091825260209182902060069091020180546001808301546002808501546003860154600487015460058801805460408051601f6000199a841615610100029a909a01909216969096049788018b90048b0281018b01909552868552969950939791969095600160a060020a03909416949093918301828280156107f55780601f106107ca576101008083540402835291602001916107f5565b820191906000526020600020905b8154815290600101906020018083116107d857829003601f168201915b5050505050905086565b600061080a33610c4f565b151561081557600080fd5b50336000908152602081905260409020545b90565b60009081526003602052604090206002015490565b600460205260009081526040902054600160a060020a031681565b3360008181526020818152604091829020849055815184815291517f18ec7dd8c4d713eb3c2e0c61825f878a47e207600626611c5bc15009c743b4b69281900390910190a250565b6003602052806000526040600020600091509050806000015490806001015490806002015490806003015490806004015490806005015490806006018054600181600116156101000203166002900480601f0160208091040260200160405190810160405280929190818152602001828054600181600116156101000203166002900480156109725780601f1061094757610100808354040283529160200191610972565b820191906000526020600020905b81548152906001019060200180831161095557829003601f168201915b5050506007909301549192505060ff1688565b600760205260009081526040902054600160a060020a031681565b6109a933610c4f565b15156109b457600080fd5b33600081815260208190526040808220829055517f36539d9970f057e4d26f828835b69fcfff15ff997f804dace8aed405cb98455f9190a2565b6000908152600360208190526040909120015490565b6000610a108533610c6c565b610a1c85858585610d94565b6000908152600760209081526040808320805473ffffffffffffffffffffffffffffffffffffffff191633908117909155835260089091529020805460010190555050505050565b60026020526000908152604090205481565b60006020819052908152604090205481565b60009081526003602052604090206005015490565b60086020526000908152604090205481565b60009081526003602052604090206001015490565b600042600683815481101515610ad657fe5b906000526020600020906006020160030154101580610b1457506006805483908110610afe57fe5b9060005260206000209060060201600301546000145b92915050565b6000610b2582610c4f565b1515610b3057600080fd5b50600160a060020a031660009081526020819052604090205490565b6001805482908110610b5a57fe5b600091825260209091200154905081565b60009081526003602052604090206007015460ff1690565b83851115610c1857604080517f08c379a000000000000000000000000000000000000000000000000000000000815260206004820152603a60248201527f537570706c792073686f756c642062652067726561746572207468616e206f7260448201527f20657175616c20746f20616d6f756e7420617661696c61626c65000000000000606482015290519081900360840190fd5b610c29878787876000888888611084565b50505050505050565b600560209081526000928352604080842090915290825290205481565b600160a060020a0316600090815260208190526040902054151590565b600080610c788461082a565b11610ce457604080517f08c379a000000000000000000000000000000000000000000000000000000000815260206004820152601a60248201527f4e6f7420656e6f7567682073746f636b20617661696c61626c65000000000000604482015290519081900360640190fd5b50600082815260036020818152604080842092830180546000199081019091556002840180549091019055600480840180546001908101909155600160a060020a03808816808852600586528488208a8952865284882080549093019092559184529482902054825188815291169281019290925281810193909352915190917f9f1682d89bb575ea69b05d0c9f1cad85537a0b457017610df5c215ac79a0c195919081900360600190a1505050565b600060606000610da261134c565b6000610dad896106f9565b15610dbe57861515610dbe57600080fd5b610dc789611325565b1515610dd257600080fd5b610ddb89610655565b935086610de78a610a88565b6040805160c0810182528c815260208082018d8152429383019384529390940260608201818152600160a060020a038c81166080850190815260a085018c8152600680546001808201808455600084905289517ff652222313e28459528d920b65115c16c04f3efc82aaedc97be59f3f377c0d3f939094029283019384559a517ff652222313e28459528d920b65115c16c04f3efc82aaedc97be59f3f377c0d4083015598517ff652222313e28459528d920b65115c16c04f3efc82aaedc97be59f3f377c0d4182015594517ff652222313e28459528d920b65115c16c04f3efc82aaedc97be59f3f377c0d4286015591517ff652222313e28459528d920b65115c16c04f3efc82aaedc97be59f3f377c0d438501805473ffffffffffffffffffffffffffffffffffffffff1916919094161790925590518051939a509398509395889493610f5d937ff652222313e28459528d920b65115c16c04f3efc82aaedc97be59f3f377c0d449093019291019061138c565b50505003905033600160a060020a0316600460008b815260200190815260200160002060009054906101000a9004600160a060020a0316600160a060020a03167f2c24f51869d5b0065c1d31b15a91cfd4d6ac31fb5764e2cccb9bcc0b159164b2838c8c42898d8c6040518088815260200187815260200186815260200185815260200184815260200183600160a060020a0316600160a060020a0316815260200180602001828103825283818151815260200191508051906020019080838360005b83811015611038578181015183820152602001611020565b50505050905090810190601f1680156110655780820380516001836020036101000a031916815260200191505b509850505050505050505060405180910390a398975050505050505050565b61108c61140a565b61109589611339565b151561110257604080517f08c379a000000000000000000000000000000000000000000000000000000000815260206004820152601660248201527f50726f6475637420646f6573206e6f7420657869737400000000000000000000604482015290519081900360640190fd5b610100604051908101604052808a81526020018981526020018881526020018781526020018681526020018581526020018481526020018315158152509050600189908060018154018082558091505090600182039060005260206000200160009091929091909150555080600360008b8152602001908152602001600020600082015181600001556020820151816001015560408201518160020155606082015181600301556080820151816004015560a0820151816005015560c08201518160060190805190602001906111d992919061138c565b5060e0918201516007909101805491151560ff1990921691909117905560008a8152600460209081526040808320805473ffffffffffffffffffffffffffffffffffffffff1916339081179091558352600282528083208054600101905580518d81528083018d90529081018b9052606081018a90526080810189905260a081018890528515159381019390935261010060c0840181815287519185019190915286517f90ac73df586646083f040d3ea1a64d8b6d2ad67e726d7eed248ea1f3a95ac90a948e948e948e948e948e948e948e948e949293610120850192918701918190849084905b838110156112d95781810151838201526020016112c1565b50505050905090810190601f1680156113065780820380516001836020036101000a031916815260200191505b50995050505050505050505060405180910390a1505050505050505050565b600090815260036020526040902054151590565b6000908152600360205260409020541590565b60c060405190810160405280600081526020016000815260200160008152602001600081526020016000600160a060020a03168152602001606081525090565b828054600181600116156101000203166002900490600052602060002090601f016020900481019282601f106113cd57805160ff19168380011785556113fa565b828001600101855582156113fa579182015b828111156113fa5782518255916020019190600101906113df565b50611406929150611452565b5090565b61010060405190810160405280600081526020016000815260200160008152602001600081526020016000815260200160008152602001606081526020016000151581525090565b61082791905b8082111561140657600081556001016114585600a165627a7a723058204b67132898aeebc601a9b41efe7454914f914526003cdd25e75cf412c205cee70029",
  "source": "pragma solidity ^0.4.15;\r\n\r\nimport \"./ProductManager.sol\";\r\n\r\ncontract LicenseManager is ProductManager {\r\n        \r\n    struct License {\r\n        uint256 productId;\r\n        uint256 attributes;\r\n        uint256 issuedTime;\r\n        uint256 expirationTime;\r\n        address affiliate;\r\n        string name;\r\n    }\r\n\r\n    \r\n    event LicenseIssued(\r\n        address indexed vendor,\r\n        address indexed buyer,\r\n        uint256 licenseId,\r\n        uint256 productId,\r\n        uint256 attributes,\r\n        uint256 issuedTime,\r\n        uint256 expirationTime,\r\n        address affiliate,\r\n        string name\r\n    );\r\n    \r\n\r\n    License[] public licenses;\r\n    mapping (uint256 => address) public licenseToOwner;\r\n    mapping (address => uint256) public ownerLicenseCount;\r\n\r\n    function licenseNotExpired(uint256 _licenseId) public view returns (bool){\r\n        return (licenses[_licenseId].expirationTime >= now || licenses[_licenseId].expirationTime == 0);\r\n    }\r\n\r\n\r\n    function isSubscriptionProduct(uint256 _productId) public view returns (bool) {\r\n        return intervalOf(_productId) > 0;\r\n    }\r\n\r\n    function _createLicense(uint256 _productId, uint256 _attributes, \r\n            uint256 _noOfCycles, address _affiliate) internal returns (uint256) {\r\n        \r\n        if(isSubscriptionProduct(_productId)) {\r\n            require(_noOfCycles != 0);\r\n        }\r\n        require(_productExists(_productId));\r\n        string memory name = nameOf(_productId);\r\n        uint256 expirationTime = (intervalOf(_productId) * _noOfCycles) ;\r\n        License memory license = License(_productId, _attributes, now, expirationTime, _affiliate, name);\r\n        uint256 id = licenses.push(license) - 1;\r\n\r\n        emit LicenseIssued(\r\n            productIdToVendor[_productId],\r\n            msg.sender,\r\n            id,\r\n            _productId,\r\n            _attributes,\r\n            now,\r\n            expirationTime,\r\n            _affiliate,\r\n            name\r\n        );\r\n        return id;\r\n    }\r\n\r\n    function purchaseLicense(uint256 _productId, uint256 _attributes, uint256 _noOfCycles, address _affiliate) public {\r\n        _buyProduct(_productId, msg.sender);\r\n        uint256 licenseId = _createLicense(_productId, _attributes, _noOfCycles, _affiliate);\r\n        licenseToOwner[licenseId] = msg.sender;\r\n        ownerLicenseCount[msg.sender]++;\r\n    }\r\n\r\n}",
  "sourcePath": "C:\\Users\\Jules\\Pictures\\UPD\\Y4A\\cs198\\DRMblockchain\\contracts\\LicenseManager.sol",
  "compiler": {
    "name": "solc",
    "version": "0.4.24+commit.e67f0147.Emscripten.clang"
  },
  "schemaVersion": "2.0.1",
  "updatedAt": "2018-10-29T10:28:41.061Z"
}