{
  "contractName": "LicenseManager",
  "abi": [
    {
      "constant": true,
      "inputs": [
        {
          "name": "_productId",
          "type": "uint256"
        }
      ],
      "name": "nameOf",
      "outputs": [
        {
          "name": "",
          "type": "string"
        }
      ],
      "payable": false,
      "stateMutability": "view",
      "type": "function"
    },
    {
      "constant": true,
      "inputs": [
        {
          "name": "_productId",
          "type": "uint256"
        }
      ],
      "name": "amountSold",
      "outputs": [
        {
          "name": "",
          "type": "uint256"
        }
      ],
      "payable": false,
      "stateMutability": "view",
      "type": "function"
    },
    {
      "constant": true,
      "inputs": [
        {
          "name": "",
          "type": "uint256"
        }
      ],
      "name": "licenses",
      "outputs": [
        {
          "name": "productId",
          "type": "uint256"
        },
        {
          "name": "attributes",
          "type": "uint256"
        },
        {
          "name": "issuedTime",
          "type": "uint256"
        },
        {
          "name": "expirationTime",
          "type": "uint256"
        },
        {
          "name": "affiliate",
          "type": "address"
        },
        {
          "name": "name",
          "type": "string"
        }
      ],
      "payable": false,
      "stateMutability": "view",
      "type": "function"
    },
    {
      "constant": true,
      "inputs": [],
      "name": "authenticate",
      "outputs": [
        {
          "name": "_pseudo",
          "type": "bytes32"
        }
      ],
      "payable": false,
      "stateMutability": "view",
      "type": "function"
    },
    {
      "constant": true,
      "inputs": [
        {
          "name": "_productId",
          "type": "uint256"
        }
      ],
      "name": "descriptionOf",
      "outputs": [
        {
          "name": "",
          "type": "string"
        }
      ],
      "payable": false,
      "stateMutability": "view",
      "type": "function"
    },
    {
      "constant": true,
      "inputs": [
        {
          "name": "_productId",
          "type": "uint256"
        }
      ],
      "name": "availableAmountOf",
      "outputs": [
        {
          "name": "available",
          "type": "uint256"
        }
      ],
      "payable": false,
      "stateMutability": "view",
      "type": "function"
    },
    {
      "constant": false,
      "inputs": [
        {
          "name": "_id",
          "type": "uint256"
        },
        {
          "name": "_price",
          "type": "uint256"
        },
        {
          "name": "_available",
          "type": "uint256"
        },
        {
          "name": "_initialSupply",
          "type": "uint256"
        },
        {
          "name": "_interval",
          "type": "uint256"
        },
        {
          "name": "_name",
          "type": "string"
        },
        {
          "name": "_description",
          "type": "string"
        },
        {
          "name": "_renewable",
          "type": "bool"
        }
      ],
      "name": "registerProduct",
      "outputs": [],
      "payable": false,
      "stateMutability": "nonpayable",
      "type": "function"
    },
    {
      "constant": true,
      "inputs": [
        {
          "name": "",
          "type": "uint256"
        }
      ],
      "name": "productIdToVendor",
      "outputs": [
        {
          "name": "",
          "type": "address"
        }
      ],
      "payable": false,
      "stateMutability": "view",
      "type": "function"
    },
    {
      "constant": false,
      "inputs": [
        {
          "name": "_pseudo",
          "type": "bytes32"
        }
      ],
      "name": "create",
      "outputs": [],
      "payable": false,
      "stateMutability": "nonpayable",
      "type": "function"
    },
    {
      "constant": true,
      "inputs": [
        {
          "name": "",
          "type": "uint256"
        }
      ],
      "name": "products",
      "outputs": [
        {
          "name": "id",
          "type": "uint256"
        },
        {
          "name": "price",
          "type": "uint256"
        },
        {
          "name": "available",
          "type": "uint256"
        },
        {
          "name": "supply",
          "type": "uint256"
        },
        {
          "name": "sold",
          "type": "uint256"
        },
        {
          "name": "interval",
          "type": "uint256"
        },
        {
          "name": "name",
          "type": "string"
        },
        {
          "name": "description",
          "type": "string"
        },
        {
          "name": "renewable",
          "type": "bool"
        }
      ],
      "payable": false,
      "stateMutability": "view",
      "type": "function"
    },
    {
      "constant": true,
      "inputs": [
        {
          "name": "",
          "type": "uint256"
        }
      ],
      "name": "licenseToOwner",
      "outputs": [
        {
          "name": "",
          "type": "address"
        }
      ],
      "payable": false,
      "stateMutability": "view",
      "type": "function"
    },
    {
      "constant": false,
      "inputs": [],
      "name": "destroy",
      "outputs": [],
      "payable": false,
      "stateMutability": "nonpayable",
      "type": "function"
    },
    {
      "constant": true,
      "inputs": [
        {
          "name": "_productId",
          "type": "uint256"
        }
      ],
      "name": "supplyOf",
      "outputs": [
        {
          "name": "",
          "type": "uint256"
        }
      ],
      "payable": false,
      "stateMutability": "view",
      "type": "function"
    },
    {
      "constant": true,
      "inputs": [
        {
          "name": "",
          "type": "address"
        }
      ],
      "name": "vendorProductCount",
      "outputs": [
        {
          "name": "",
          "type": "uint256"
        }
      ],
      "payable": false,
      "stateMutability": "view",
      "type": "function"
    },
    {
      "constant": true,
      "inputs": [
        {
          "name": "",
          "type": "address"
        }
      ],
      "name": "users",
      "outputs": [
        {
          "name": "",
          "type": "bytes32"
        }
      ],
      "payable": false,
      "stateMutability": "view",
      "type": "function"
    },
    {
      "constant": true,
      "inputs": [
        {
          "name": "_productId",
          "type": "uint256"
        }
      ],
      "name": "intervalOf",
      "outputs": [
        {
          "name": "",
          "type": "uint256"
        }
      ],
      "payable": false,
      "stateMutability": "view",
      "type": "function"
    },
    {
      "constant": true,
      "inputs": [
        {
          "name": "",
          "type": "address"
        }
      ],
      "name": "ownerLicenseCount",
      "outputs": [
        {
          "name": "",
          "type": "uint256"
        }
      ],
      "payable": false,
      "stateMutability": "view",
      "type": "function"
    },
    {
      "constant": true,
      "inputs": [
        {
          "name": "_productId",
          "type": "uint256"
        }
      ],
      "name": "priceOf",
      "outputs": [
        {
          "name": "",
          "type": "uint256"
        }
      ],
      "payable": false,
      "stateMutability": "view",
      "type": "function"
    },
    {
      "constant": true,
      "inputs": [
        {
          "name": "_address",
          "type": "address"
        }
      ],
      "name": "get",
      "outputs": [
        {
          "name": "_pseudo",
          "type": "bytes32"
        }
      ],
      "payable": false,
      "stateMutability": "view",
      "type": "function"
    },
    {
      "constant": true,
      "inputs": [
        {
          "name": "",
          "type": "uint256"
        }
      ],
      "name": "productIds",
      "outputs": [
        {
          "name": "",
          "type": "uint256"
        }
      ],
      "payable": false,
      "stateMutability": "view",
      "type": "function"
    },
    {
      "constant": true,
      "inputs": [
        {
          "name": "_productId",
          "type": "uint256"
        }
      ],
      "name": "isRenewable",
      "outputs": [
        {
          "name": "",
          "type": "bool"
        }
      ],
      "payable": false,
      "stateMutability": "view",
      "type": "function"
    },
    {
      "constant": true,
      "inputs": [
        {
          "name": "",
          "type": "address"
        },
        {
          "name": "",
          "type": "uint256"
        }
      ],
      "name": "ownerToProductCount",
      "outputs": [
        {
          "name": "",
          "type": "uint256"
        }
      ],
      "payable": false,
      "stateMutability": "view",
      "type": "function"
    },
    {
      "constant": true,
      "inputs": [
        {
          "name": "_address",
          "type": "address"
        }
      ],
      "name": "exists",
      "outputs": [
        {
          "name": "_exists",
          "type": "bool"
        }
      ],
      "payable": false,
      "stateMutability": "view",
      "type": "function"
    },
    {
      "anonymous": false,
      "inputs": [
        {
          "indexed": true,
          "name": "vendor",
          "type": "address"
        },
        {
          "indexed": true,
          "name": "buyer",
          "type": "address"
        },
        {
          "indexed": false,
          "name": "licenseId",
          "type": "uint256"
        },
        {
          "indexed": false,
          "name": "productId",
          "type": "uint256"
        },
        {
          "indexed": false,
          "name": "attributes",
          "type": "uint256"
        },
        {
          "indexed": false,
          "name": "issuedTime",
          "type": "uint256"
        },
        {
          "indexed": false,
          "name": "expirationTime",
          "type": "uint256"
        },
        {
          "indexed": false,
          "name": "affiliate",
          "type": "address"
        },
        {
          "indexed": false,
          "name": "name",
          "type": "string"
        }
      ],
      "name": "LicenseIssued",
      "type": "event"
    },
    {
      "anonymous": false,
      "inputs": [
        {
          "indexed": false,
          "name": "productId",
          "type": "uint256"
        },
        {
          "indexed": false,
          "name": "price",
          "type": "uint256"
        },
        {
          "indexed": false,
          "name": "available",
          "type": "uint256"
        },
        {
          "indexed": false,
          "name": "supply",
          "type": "uint256"
        },
        {
          "indexed": false,
          "name": "sold",
          "type": "uint256"
        },
        {
          "indexed": false,
          "name": "interval",
          "type": "uint256"
        },
        {
          "indexed": false,
          "name": "name",
          "type": "string"
        },
        {
          "indexed": false,
          "name": "description",
          "type": "string"
        },
        {
          "indexed": false,
          "name": "renewable",
          "type": "bool"
        }
      ],
      "name": "ProductCreated",
      "type": "event"
    },
    {
      "anonymous": false,
      "inputs": [
        {
          "indexed": false,
          "name": "productId",
          "type": "uint256"
        },
        {
          "indexed": false,
          "name": "vendor",
          "type": "address"
        },
        {
          "indexed": false,
          "name": "buyer",
          "type": "address"
        }
      ],
      "name": "ProductBought",
      "type": "event"
    },
    {
      "anonymous": false,
      "inputs": [
        {
          "indexed": true,
          "name": "_address",
          "type": "address"
        },
        {
          "indexed": false,
          "name": "_pseudo",
          "type": "bytes32"
        }
      ],
      "name": "UserCreated",
      "type": "event"
    },
    {
      "anonymous": false,
      "inputs": [
        {
          "indexed": true,
          "name": "_address",
          "type": "address"
        }
      ],
      "name": "UserDestroyed",
      "type": "event"
    },
    {
      "constant": true,
      "inputs": [
        {
          "name": "_licenseId",
          "type": "uint256"
        }
      ],
      "name": "licenseNotExpired",
      "outputs": [
        {
          "name": "",
          "type": "bool"
        }
      ],
      "payable": false,
      "stateMutability": "view",
      "type": "function"
    },
    {
      "constant": true,
      "inputs": [
        {
          "name": "_productId",
          "type": "uint256"
        }
      ],
      "name": "isSubscriptionProduct",
      "outputs": [
        {
          "name": "",
          "type": "bool"
        }
      ],
      "payable": false,
      "stateMutability": "view",
      "type": "function"
    },
    {
      "constant": false,
      "inputs": [
        {
          "name": "_productId",
          "type": "uint256"
        },
        {
          "name": "_attributes",
          "type": "uint256"
        },
        {
          "name": "_noOfCycles",
          "type": "uint256"
        },
        {
          "name": "_affiliate",
          "type": "address"
        }
      ],
      "name": "purchaseLicense",
      "outputs": [],
      "payable": false,
      "stateMutability": "nonpayable",
      "type": "function"
    }
  ],
  "bytecode": "0x608060405234801561001057600080fd5b506116f2806100206000396000f3006080604052600436106101535763ffffffff7c0100000000000000000000000000000000000000000000000000000000600035041663051a266481146101585780630528bb57146101e55780632895d75914610211578063337908451461023b578063380c7a67146103005780633e0fb2671461031557806355ef3cef1461032d57806360f19a46146103455780636f1ee18d146103f55780637368a8ce146104295780637acc0b20146104415780637ced11021461056c57806383197ef0146105845780638806792f1461059957806389d6fb94146105b1578063959a8dd9146105db578063a87430ba146105fc578063b369af711461061d578063b7eaebd514610635578063b9186d7d14610656578063be77ab8b1461066e578063c2bc2efc14610686578063cb51bba9146106a7578063cde317af146106bf578063f47cc731146106d7578063f6a3d24e146106fb575b600080fd5b34801561016457600080fd5b5061017060043561071c565b6040805160208082528351818301528351919283929083019185019080838360005b838110156101aa578181015183820152602001610192565b50505050905090810190601f1680156101d75780820380516001836020036101000a031916815260200191505b509250505060405180910390f35b3480156101f157600080fd5b506101fd6004356107c0565b604080519115158252519081900360200190f35b34801561021d57600080fd5b506102296004356107d3565b60408051918252519081900360200190f35b34801561024757600080fd5b506102536004356107e8565b6040518087815260200186815260200185815260200184815260200183600160a060020a0316600160a060020a0316815260200180602001828103825283818151815260200191508051906020019080838360005b838110156102c05781810151838201526020016102a8565b50505050905090810190601f1680156102ed5780820380516001836020036101000a031916815260200191505b5097505050505050505060405180910390f35b34801561030c57600080fd5b506102296108c6565b34801561032157600080fd5b506101706004356108f1565b34801561033957600080fd5b5061022960043561095e565b34801561035157600080fd5b50604080516020600460a43581810135601f81018490048402850184019095528484526103f39482359460248035956044359560643595608435953695929460c494920191819084018382808284375050604080516020601f89358b018035918201839004830284018301909452808352979a999881019791965091820194509250829150840183828082843750949750505050913515159250610973915050565b005b34801561040157600080fd5b5061040d600435610a24565b60408051600160a060020a039092168252519081900360200190f35b34801561043557600080fd5b506103f3600435610a3f565b34801561044d57600080fd5b50610459600435610a87565b604051808a8152602001898152602001888152602001878152602001868152602001858152602001806020018060200184151515158152602001838103835286818151815260200191508051906020019080838360005b838110156104c85781810151838201526020016104b0565b50505050905090810190601f1680156104f55780820380516001836020036101000a031916815260200191505b50838103825285518152855160209182019187019080838360005b83811015610528578181015183820152602001610510565b50505050905090810190601f1680156105555780820380516001836020036101000a031916815260200191505b509b50505050505050505050505060405180910390f35b34801561057857600080fd5b5061040d600435610bfa565b34801561059057600080fd5b506103f3610c15565b3480156105a557600080fd5b50610229600435610c63565b3480156105bd57600080fd5b506103f3600435602435604435600160a060020a0360643516610c79565b3480156105e757600080fd5b50610229600160a060020a0360043516610cd9565b34801561060857600080fd5b50610229600160a060020a0360043516610ceb565b34801561062957600080fd5b50610229600435610cfd565b34801561064157600080fd5b50610229600160a060020a0360043516610d12565b34801561066257600080fd5b50610229600435610d24565b34801561067a57600080fd5b506101fd600435610d39565b34801561069257600080fd5b50610229600160a060020a0360043516610d8f565b3480156106b357600080fd5b50610229600435610dc1565b3480156106cb57600080fd5b506101fd600435610de0565b3480156106e357600080fd5b50610229600160a060020a0360043516602435610df8565b34801561070757600080fd5b506101fd600160a060020a0360043516610e15565b60008181526003602090815260409182902060060180548351601f60026000196101006001861615020190931692909204918201849004840281018401909452808452606093928301828280156107b45780601f10610789576101008083540402835291602001916107b4565b820191906000526020600020905b81548152906001019060200180831161079757829003601f168201915b50505050509050919050565b6000806107cc83610cfd565b1192915050565b60009081526003602052604090206004015490565b60068054829081106107f657fe5b600091825260209182902060069091020180546001808301546002808501546003860154600487015460058801805460408051601f6000199a841615610100029a909a01909216969096049788018b90048b0281018b01909552868552969950939791969095600160a060020a03909416949093918301828280156108bc5780601f10610891576101008083540402835291602001916108bc565b820191906000526020600020905b81548152906001019060200180831161089f57829003601f168201915b5050505050905086565b60006108d133610e15565b15156108dc57600080fd5b50336000908152602081905260409020545b90565b60008181526003602090815260409182902060070180548351601f60026000196101006001861615020190931692909204918201849004840281018401909452808452606093928301828280156107b45780601f10610789576101008083540402835291602001916107b4565b60009081526003602052604090206002015490565b84861115610a0857604080517f08c379a000000000000000000000000000000000000000000000000000000000815260206004820152603a60248201527f537570706c792073686f756c642062652067726561746572207468616e206f7260448201527f20657175616c20746f20616d6f756e7420617661696c61626c65000000000000606482015290519081900360840190fd5b610a1a88888888600089898989610e32565b5050505050505050565b600460205260009081526040902054600160a060020a031681565b3360008181526020818152604091829020849055815184815291517f18ec7dd8c4d713eb3c2e0c61825f878a47e207600626611c5bc15009c743b4b69281900390910190a250565b6003602052806000526040600020600091509050806000015490806001015490806002015490806003015490806004015490806005015490806006018054600181600116156101000203166002900480601f016020809104026020016040519081016040528092919081815260200182805460018160011615610100020316600290048015610b575780601f10610b2c57610100808354040283529160200191610b57565b820191906000526020600020905b815481529060010190602001808311610b3a57829003601f168201915b5050505060078301805460408051602060026001851615610100026000190190941693909304601f8101849004840282018401909252818152949594935090830182828015610be75780601f10610bbc57610100808354040283529160200191610be7565b820191906000526020600020905b815481529060010190602001808311610bca57829003601f168201915b5050506008909301549192505060ff1689565b600760205260009081526040902054600160a060020a031681565b610c1e33610e15565b1515610c2957600080fd5b33600081815260208190526040808220829055517f36539d9970f057e4d26f828835b69fcfff15ff997f804dace8aed405cb98455f9190a2565b6000908152600360208190526040909120015490565b6000610c858533611160565b610c9185858585611288565b6000908152600760209081526040808320805473ffffffffffffffffffffffffffffffffffffffff191633908117909155835260089091529020805460010190555050505050565b60026020526000908152604090205481565b60006020819052908152604090205481565b60009081526003602052604090206005015490565b60086020526000908152604090205481565b60009081526003602052604090206001015490565b600042600683815481101515610d4b57fe5b906000526020600020906006020160030154101580610d8957506006805483908110610d7357fe5b9060005260206000209060060201600301546000145b92915050565b6000610d9a82610e15565b1515610da557600080fd5b50600160a060020a031660009081526020819052604090205490565b6001805482908110610dcf57fe5b600091825260209091200154905081565b60009081526003602052604090206008015460ff1690565b600560209081526000928352604080842090915290825290205481565b600160a060020a0316600090815260208190526040902054151590565b610e3a61159f565b610e438a611578565b1515610eb057604080517f08c379a000000000000000000000000000000000000000000000000000000000815260206004820152601660248201527f50726f6475637420646f6573206e6f7420657869737400000000000000000000604482015290519081900360640190fd5b610120604051908101604052808b81526020018a8152602001898152602001888152602001878152602001868152602001858152602001848152602001831515815250905060018a908060018154018082558091505090600182039060005260206000200160009091929091909150555080600360008c8152602001908152602001600020600082015181600001556020820151816001015560408201518160020155606082015181600301556080820151816004015560a0820151816005015560c0820151816006019080519060200190610f8d9291906115ee565b5060e08201518051610fa99160078401916020909101906115ee565b50610100918201516008909101805491151560ff1990921691909117905560008b8152600460209081526040808320805473ffffffffffffffffffffffffffffffffffffffff1916339081179091558352600282528083208054600101905580518e81528083018e90529081018c9052606081018b9052608081018a905260a081018990528515159381019390935261012060c0840181815288519185019190915287517f4c0808fa1d3b16bf13a9868acb93e0000658f9aa903bbf763064ee327ff61c74948f948f948f948f948f948f948f948f948f94909260e0850192610140860192908901918190849084905b838110156110b1578181015183820152602001611099565b50505050905090810190601f1680156110de5780820380516001836020036101000a031916815260200191505b50838103825285518152855160209182019187019080838360005b838110156111115781810151838201526020016110f9565b50505050905090810190601f16801561113e5780820380516001836020036101000a031916815260200191505b509b50505050505050505050505060405180910390a150505050505050505050565b60008061116c8461095e565b116111d857604080517f08c379a000000000000000000000000000000000000000000000000000000000815260206004820152601a60248201527f4e6f7420656e6f7567682073746f636b20617661696c61626c65000000000000604482015290519081900360640190fd5b50600082815260036020818152604080842092830180546000199081019091556002840180549091019055600480840180546001908101909155600160a060020a03808816808852600586528488208a8952865284882080549093019092559184529482902054825188815291169281019290925281810193909352915190917f9f1682d89bb575ea69b05d0c9f1cad85537a0b457017610df5c215ac79a0c195919081900360600190a1505050565b60006060600061129661166c565b60006112a1896107c0565b156112b2578615156112b257600080fd5b6112bb8961158b565b15156112c657600080fd5b6112cf8961071c565b9350866112db8a610cfd565b6040805160c0810182528c815260208082018d8152429383019384529390940260608201818152600160a060020a038c81166080850190815260a085018c8152600680546001808201808455600084905289517ff652222313e28459528d920b65115c16c04f3efc82aaedc97be59f3f377c0d3f939094029283019384559a517ff652222313e28459528d920b65115c16c04f3efc82aaedc97be59f3f377c0d4083015598517ff652222313e28459528d920b65115c16c04f3efc82aaedc97be59f3f377c0d4182015594517ff652222313e28459528d920b65115c16c04f3efc82aaedc97be59f3f377c0d4286015591517ff652222313e28459528d920b65115c16c04f3efc82aaedc97be59f3f377c0d438501805473ffffffffffffffffffffffffffffffffffffffff1916919094161790925590518051939a509398509395889493611451937ff652222313e28459528d920b65115c16c04f3efc82aaedc97be59f3f377c0d44909301929101906115ee565b50505003905033600160a060020a0316600460008b815260200190815260200160002060009054906101000a9004600160a060020a0316600160a060020a03167f2c24f51869d5b0065c1d31b15a91cfd4d6ac31fb5764e2cccb9bcc0b159164b2838c8c42898d8c6040518088815260200187815260200186815260200185815260200184815260200183600160a060020a0316600160a060020a0316815260200180602001828103825283818151815260200191508051906020019080838360005b8381101561152c578181015183820152602001611514565b50505050905090810190601f1680156115595780820380516001836020036101000a031916815260200191505b509850505050505050505060405180910390a398975050505050505050565b6000908152600360205260409020541590565b600090815260036020526040902054151590565b6101206040519081016040528060008152602001600081526020016000815260200160008152602001600081526020016000815260200160608152602001606081526020016000151581525090565b828054600181600116156101000203166002900490600052602060002090601f016020900481019282601f1061162f57805160ff191683800117855561165c565b8280016001018555821561165c579182015b8281111561165c578251825591602001919060010190611641565b506116689291506116ac565b5090565b60c060405190810160405280600081526020016000815260200160008152602001600081526020016000600160a060020a03168152602001606081525090565b6108ee91905b8082111561166857600081556001016116b25600a165627a7a72305820973dd20419453d58240a273ef93c8b7873ecdee3bf351a5fbbf0960620a33de30029",
  "source": "pragma solidity ^0.4.15;\r\n\r\nimport \"./ProductManager.sol\";\r\n\r\ncontract LicenseManager is ProductManager {\r\n        \r\n    struct License {\r\n        uint256 productId;\r\n        uint256 attributes;\r\n        uint256 issuedTime;\r\n        uint256 expirationTime;\r\n        address affiliate;\r\n        string name;\r\n    }\r\n\r\n    \r\n    event LicenseIssued(\r\n        address indexed vendor,\r\n        address indexed buyer,\r\n        uint256 licenseId,\r\n        uint256 productId,\r\n        uint256 attributes,\r\n        uint256 issuedTime,\r\n        uint256 expirationTime,\r\n        address affiliate,\r\n        string name\r\n    );\r\n    \r\n\r\n    License[] public licenses;\r\n    mapping (uint256 => address) public licenseToOwner;\r\n    mapping (address => uint256) public ownerLicenseCount;\r\n\r\n    function licenseNotExpired(uint256 _licenseId) public view returns (bool){\r\n        return (licenses[_licenseId].expirationTime >= now || licenses[_licenseId].expirationTime == 0);\r\n    }\r\n\r\n\r\n    function isSubscriptionProduct(uint256 _productId) public view returns (bool) {\r\n        return intervalOf(_productId) > 0;\r\n    }\r\n\r\n    function _createLicense(uint256 _productId, uint256 _attributes, \r\n            uint256 _noOfCycles, address _affiliate) internal returns (uint256) {\r\n        \r\n        if(isSubscriptionProduct(_productId)) {\r\n            require(_noOfCycles != 0);\r\n        }\r\n        require(_productExists(_productId));\r\n        string memory name = nameOf(_productId);\r\n        uint256 expirationTime = (intervalOf(_productId) * _noOfCycles) ;\r\n        License memory license = License(_productId, _attributes, now, expirationTime, _affiliate, name);\r\n        uint256 id = licenses.push(license) - 1;\r\n\r\n        emit LicenseIssued(\r\n            productIdToVendor[_productId],\r\n            msg.sender,\r\n            id,\r\n            _productId,\r\n            _attributes,\r\n            now,\r\n            expirationTime,\r\n            _affiliate,\r\n            name\r\n        );\r\n        return id;\r\n    }\r\n\r\n    function purchaseLicense(uint256 _productId, uint256 _attributes, uint256 _noOfCycles, address _affiliate) public {\r\n        _buyProduct(_productId, msg.sender);\r\n        uint256 licenseId = _createLicense(_productId, _attributes, _noOfCycles, _affiliate);\r\n        licenseToOwner[licenseId] = msg.sender;\r\n        ownerLicenseCount[msg.sender]++;\r\n    }\r\n\r\n}",
  "sourcePath": "C:\\Users\\Jules\\Pictures\\UPD\\Y4A\\cs198\\DRMblockchain\\contracts\\LicenseManager.sol",
  "compiler": {
    "name": "solc",
    "version": "0.4.24+commit.e67f0147.Emscripten.clang"
  },
  "schemaVersion": "2.0.1",
  "updatedAt": "2018-10-30T11:06:42.245Z"
}