{
  "contractName": "LicenseManager",
  "abi": [
    {
      "constant": true,
      "inputs": [
        {
          "name": "_productId",
          "type": "uint256"
        }
      ],
      "name": "amountSold",
      "outputs": [
        {
          "name": "",
          "type": "uint256"
        }
      ],
      "payable": false,
      "stateMutability": "view",
      "type": "function"
    },
    {
      "constant": true,
      "inputs": [
        {
          "name": "",
          "type": "uint256"
        }
      ],
      "name": "licenses",
      "outputs": [
        {
          "name": "productId",
          "type": "uint256"
        },
        {
          "name": "attributes",
          "type": "uint256"
        },
        {
          "name": "issuedTime",
          "type": "uint256"
        },
        {
          "name": "expirationTime",
          "type": "uint256"
        },
        {
          "name": "affiliate",
          "type": "address"
        }
      ],
      "payable": false,
      "stateMutability": "view",
      "type": "function"
    },
    {
      "constant": true,
      "inputs": [],
      "name": "authenticate",
      "outputs": [
        {
          "name": "_pseudo",
          "type": "bytes32"
        }
      ],
      "payable": false,
      "stateMutability": "view",
      "type": "function"
    },
    {
      "constant": false,
      "inputs": [
        {
          "name": "_id",
          "type": "uint256"
        },
        {
          "name": "_price",
          "type": "uint256"
        },
        {
          "name": "_available",
          "type": "uint256"
        },
        {
          "name": "_initialSupply",
          "type": "uint256"
        },
        {
          "name": "_interval",
          "type": "uint256"
        },
        {
          "name": "_renewable",
          "type": "bool"
        }
      ],
      "name": "registerProduct",
      "outputs": [],
      "payable": false,
      "stateMutability": "nonpayable",
      "type": "function"
    },
    {
      "constant": true,
      "inputs": [
        {
          "name": "_productId",
          "type": "uint256"
        }
      ],
      "name": "availableAmountOf",
      "outputs": [
        {
          "name": "",
          "type": "uint256"
        }
      ],
      "payable": false,
      "stateMutability": "view",
      "type": "function"
    },
    {
      "constant": true,
      "inputs": [
        {
          "name": "",
          "type": "uint256"
        }
      ],
      "name": "productIdToVendor",
      "outputs": [
        {
          "name": "",
          "type": "address"
        }
      ],
      "payable": false,
      "stateMutability": "view",
      "type": "function"
    },
    {
      "constant": false,
      "inputs": [
        {
          "name": "_pseudo",
          "type": "bytes32"
        }
      ],
      "name": "create",
      "outputs": [],
      "payable": false,
      "stateMutability": "nonpayable",
      "type": "function"
    },
    {
      "constant": true,
      "inputs": [
        {
          "name": "",
          "type": "uint256"
        }
      ],
      "name": "products",
      "outputs": [
        {
          "name": "id",
          "type": "uint256"
        },
        {
          "name": "price",
          "type": "uint256"
        },
        {
          "name": "available",
          "type": "uint256"
        },
        {
          "name": "supply",
          "type": "uint256"
        },
        {
          "name": "sold",
          "type": "uint256"
        },
        {
          "name": "interval",
          "type": "uint256"
        },
        {
          "name": "renewable",
          "type": "bool"
        }
      ],
      "payable": false,
      "stateMutability": "view",
      "type": "function"
    },
    {
      "constant": true,
      "inputs": [
        {
          "name": "",
          "type": "uint256"
        }
      ],
      "name": "licenseToOwner",
      "outputs": [
        {
          "name": "",
          "type": "address"
        }
      ],
      "payable": false,
      "stateMutability": "view",
      "type": "function"
    },
    {
      "constant": false,
      "inputs": [],
      "name": "destroy",
      "outputs": [],
      "payable": false,
      "stateMutability": "nonpayable",
      "type": "function"
    },
    {
      "constant": true,
      "inputs": [
        {
          "name": "_productId",
          "type": "uint256"
        }
      ],
      "name": "supplyOf",
      "outputs": [
        {
          "name": "",
          "type": "uint256"
        }
      ],
      "payable": false,
      "stateMutability": "view",
      "type": "function"
    },
    {
      "constant": true,
      "inputs": [
        {
          "name": "",
          "type": "address"
        }
      ],
      "name": "vendorProductCount",
      "outputs": [
        {
          "name": "",
          "type": "uint256"
        }
      ],
      "payable": false,
      "stateMutability": "view",
      "type": "function"
    },
    {
      "constant": true,
      "inputs": [
        {
          "name": "",
          "type": "address"
        }
      ],
      "name": "users",
      "outputs": [
        {
          "name": "",
          "type": "bytes32"
        }
      ],
      "payable": false,
      "stateMutability": "view",
      "type": "function"
    },
    {
      "constant": true,
      "inputs": [
        {
          "name": "_productId",
          "type": "uint256"
        }
      ],
      "name": "intervalOf",
      "outputs": [
        {
          "name": "",
          "type": "uint256"
        }
      ],
      "payable": false,
      "stateMutability": "view",
      "type": "function"
    },
    {
      "constant": true,
      "inputs": [
        {
          "name": "",
          "type": "address"
        }
      ],
      "name": "ownerLicenseCount",
      "outputs": [
        {
          "name": "",
          "type": "uint256"
        }
      ],
      "payable": false,
      "stateMutability": "view",
      "type": "function"
    },
    {
      "constant": true,
      "inputs": [
        {
          "name": "_productId",
          "type": "uint256"
        }
      ],
      "name": "priceOf",
      "outputs": [
        {
          "name": "",
          "type": "uint256"
        }
      ],
      "payable": false,
      "stateMutability": "view",
      "type": "function"
    },
    {
      "constant": true,
      "inputs": [
        {
          "name": "_address",
          "type": "address"
        }
      ],
      "name": "get",
      "outputs": [
        {
          "name": "_pseudo",
          "type": "bytes32"
        }
      ],
      "payable": false,
      "stateMutability": "view",
      "type": "function"
    },
    {
      "constant": true,
      "inputs": [
        {
          "name": "",
          "type": "uint256"
        }
      ],
      "name": "productIds",
      "outputs": [
        {
          "name": "",
          "type": "uint256"
        }
      ],
      "payable": false,
      "stateMutability": "view",
      "type": "function"
    },
    {
      "constant": true,
      "inputs": [
        {
          "name": "_productId",
          "type": "uint256"
        }
      ],
      "name": "isRenewable",
      "outputs": [
        {
          "name": "",
          "type": "bool"
        }
      ],
      "payable": false,
      "stateMutability": "view",
      "type": "function"
    },
    {
      "constant": true,
      "inputs": [
        {
          "name": "_address",
          "type": "address"
        }
      ],
      "name": "exists",
      "outputs": [
        {
          "name": "_exists",
          "type": "bool"
        }
      ],
      "payable": false,
      "stateMutability": "view",
      "type": "function"
    },
    {
      "anonymous": false,
      "inputs": [
        {
          "indexed": false,
          "name": "productId",
          "type": "uint256"
        },
        {
          "indexed": false,
          "name": "price",
          "type": "uint256"
        },
        {
          "indexed": false,
          "name": "available",
          "type": "uint256"
        },
        {
          "indexed": false,
          "name": "supply",
          "type": "uint256"
        },
        {
          "indexed": false,
          "name": "sold",
          "type": "uint256"
        },
        {
          "indexed": false,
          "name": "interval",
          "type": "uint256"
        },
        {
          "indexed": false,
          "name": "renewable",
          "type": "bool"
        }
      ],
      "name": "ProductCreated",
      "type": "event"
    },
    {
      "anonymous": false,
      "inputs": [
        {
          "indexed": false,
          "name": "productId",
          "type": "uint256"
        },
        {
          "indexed": false,
          "name": "buyer",
          "type": "address"
        }
      ],
      "name": "ProductBought",
      "type": "event"
    },
    {
      "anonymous": false,
      "inputs": [
        {
          "indexed": true,
          "name": "_address",
          "type": "address"
        },
        {
          "indexed": false,
          "name": "_pseudo",
          "type": "bytes32"
        }
      ],
      "name": "UserCreated",
      "type": "event"
    },
    {
      "anonymous": false,
      "inputs": [
        {
          "indexed": true,
          "name": "_address",
          "type": "address"
        }
      ],
      "name": "UserDestroyed",
      "type": "event"
    }
  ],
  "bytecode": "0x608060405234801561001057600080fd5b50610960806100206000396000f3006080604052600436106101115763ffffffff7c01000000000000000000000000000000000000000000000000000000006000350416632895d75981146101165780633379084514610140578063380c7a671461018c5780633ff64195146101a157806355ef3cef146101cc5780636f1ee18d146101e45780637368a8ce146102185780637acc0b20146102305780637ced11021461028257806383197ef01461029a5780638806792f146102af578063959a8dd9146102c7578063a87430ba146102e8578063b369af7114610309578063b7eaebd514610321578063b9186d7d14610342578063c2bc2efc1461035a578063cb51bba91461037b578063cde317af14610393578063f6a3d24e146103bf575b600080fd5b34801561012257600080fd5b5061012e6004356103e0565b60408051918252519081900360200190f35b34801561014c57600080fd5b506101586004356103f5565b604080519586526020860194909452848401929092526060840152600160a060020a03166080830152519081900360a00190f35b34801561019857600080fd5b5061012e61043d565b3480156101ad57600080fd5b506101ca60043560243560443560643560843560a4351515610467565b005b3480156101d857600080fd5b5061012e60043561048c565b3480156101f057600080fd5b506101fc6004356104a1565b60408051600160a060020a039092168252519081900360200190f35b34801561022457600080fd5b506101ca6004356104bc565b34801561023c57600080fd5b50610248600435610504565b604080519788526020880196909652868601949094526060860192909252608085015260a0840152151560c0830152519081900360e00190f35b34801561028e57600080fd5b506101fc600435610545565b3480156102a657600080fd5b506101ca610560565b3480156102bb57600080fd5b5061012e6004356105ae565b3480156102d357600080fd5b5061012e600160a060020a03600435166105c4565b3480156102f457600080fd5b5061012e600160a060020a03600435166105d6565b34801561031557600080fd5b5061012e6004356105e8565b34801561032d57600080fd5b5061012e600160a060020a03600435166105fd565b34801561034e57600080fd5b5061012e60043561060f565b34801561036657600080fd5b5061012e600160a060020a0360043516610624565b34801561038757600080fd5b5061012e600435610656565b34801561039f57600080fd5b506103ab600435610675565b604080519115158252519081900360200190f35b3480156103cb57600080fd5b506103ab600160a060020a036004351661068d565b60009081526003602052604090206004015490565b600580548290811061040357fe5b60009182526020909120600590910201805460018201546002830154600384015460049094015492945090929091600160a060020a031685565b60006104483361068d565b151561045357600080fd5b503360009081526020819052604090205490565b8284111561047457600080fd5b61048486868686600087876106aa565b505050505050565b60009081526003602052604090206002015490565b600460205260009081526040902054600160a060020a031681565b3360008181526020818152604091829020849055815184815291517f18ec7dd8c4d713eb3c2e0c61825f878a47e207600626611c5bc15009c743b4b69281900390910190a250565b600360208190526000918252604090912080546001820154600283015493830154600484015460058501546006909501549395929492939192909160ff1687565b600660205260009081526040902054600160a060020a031681565b6105693361068d565b151561057457600080fd5b33600081815260208190526040808220829055517f36539d9970f057e4d26f828835b69fcfff15ff997f804dace8aed405cb98455f9190a2565b6000908152600360208190526040909120015490565b60026020526000908152604090205481565b60006020819052908152604090205481565b60009081526003602052604090206005015490565b60076020526000908152604090205481565b60009081526003602052604090206001015490565b600061062f8261068d565b151561063a57600080fd5b50600160a060020a031660009081526020819052604090205490565b600180548290811061066457fe5b600091825260209091200154905081565b60009081526003602052604090206006015460ff1690565b600160a060020a0316600090815260208190526040902054151590565b6106b26108f4565b6106bb886108e1565b151561072857604080517f08c379a000000000000000000000000000000000000000000000000000000000815260206004820152601660248201527f50726f6475637420646f6573206e6f7420657869737400000000000000000000604482015290519081900360640190fd5b60e0604051908101604052808981526020018881526020018781526020018681526020018581526020018481526020018315158152509050600188908060018154018082558091505090600182039060005260206000200160009091929091909150555080600360008a8152602001908152602001600020600082015181600001556020820151816001015560408201518160020155606082015181600301556080820151816004015560a0820151816005015560c08201518160060160006101000a81548160ff02191690831515021790555090505033600460008a815260200190815260200160002060006101000a815481600160a060020a030219169083600160a060020a031602179055506002600033600160a060020a0316600160a060020a03168152602001908152602001600020600081548092919060010191905055507f59602036a4d5ddc6d26a204732c88deed66e3cbd4e5bd29fb7d85ca6eca3b21288888888888888604051808881526020018781526020018681526020018581526020018481526020018381526020018215151515815260200197505050505050505060405180910390a15050505050505050565b6000908152600360205260409020541590565b60e06040519081016040528060008152602001600081526020016000815260200160008152602001600081526020016000815260200160001515815250905600a165627a7a723058206d820f09bda3b1325dd83114c9dbc0dca7ba14d17c54e8b68d745f1516426d420029",
  "source": "pragma solidity ^0.4.15;\r\n\r\nimport \"./ProductManager.sol\";\r\n\r\ncontract LicenseManager is ProductManager {\r\n        \r\n    struct License {\r\n        uint256 productId;\r\n        uint256 attributes;\r\n        uint256 issuedTime;\r\n        uint256 expirationTime;\r\n        address affiliate;\r\n    }\r\n\r\n    /*\r\n    event LicenseIssued(\r\n        address indexed vendor,\r\n        address indexed buyer,\r\n        uint256 licenseId,\r\n        uint256 productId,\r\n        uint256 attributes,\r\n        uint256 issuedTime,\r\n        uint256 expirationTime,\r\n        address affiliate\r\n    );\r\n    */\r\n\r\n    License[] public licenses;\r\n    mapping (uint256 => address) public licenseToOwner;\r\n    mapping (address => uint256) public ownerLicenseCount;\r\n\r\n    modifier licenseNotExpired(uint256 _licenseId) {\r\n        require(licenses[_licenseId].expirationTime >= now || licenses[_licenseId].expirationTime == 0, \"License has expired\");\r\n        _;\r\n    }\r\n\r\n    function _createLicense(uint256 _productId, uint256 _attributes, uint256 _issuedTime, \r\n            uint256 _expirationTime, address _affiliate) internal {\r\n\r\n        License memory license = License(_productId, _attributes, now, _expirationTime, _affiliate);\r\n        uint256 id = licenses.push(license) - 1;\r\n    }\r\n\r\n}",
  "sourcePath": "C:\\Users\\Carlos\\Desktop\\Thesis\\drmblockchain\\contracts\\LicenseManager.sol",
  "compiler": {
    "name": "solc",
    "version": "0.4.24+commit.e67f0147.Emscripten.clang"
  },
  "schemaVersion": "2.0.1",
  "updatedAt": "2018-10-29T08:51:56.214Z"
}