{
  "contractName": "ProductManager",
  "abi": [
    {
      "constant": true,
      "inputs": [],
      "name": "authenticate",
      "outputs": [
        {
          "name": "_pseudo",
          "type": "bytes32"
        }
      ],
      "payable": false,
      "stateMutability": "view",
      "type": "function"
    },
    {
      "constant": true,
      "inputs": [
        {
          "name": "",
          "type": "uint256"
        }
      ],
      "name": "productIdToVendor",
      "outputs": [
        {
          "name": "",
          "type": "address"
        }
      ],
      "payable": false,
      "stateMutability": "view",
      "type": "function"
    },
    {
      "constant": false,
      "inputs": [
        {
          "name": "_pseudo",
          "type": "bytes32"
        }
      ],
      "name": "create",
      "outputs": [],
      "payable": false,
      "stateMutability": "nonpayable",
      "type": "function"
    },
    {
      "constant": true,
      "inputs": [
        {
          "name": "",
          "type": "uint256"
        }
      ],
      "name": "products",
      "outputs": [
        {
          "name": "id",
          "type": "uint256"
        },
        {
          "name": "price",
          "type": "uint256"
        },
        {
          "name": "available",
          "type": "uint256"
        },
        {
          "name": "supply",
          "type": "uint256"
        },
        {
          "name": "sold",
          "type": "uint256"
        },
        {
          "name": "interval",
          "type": "uint256"
        },
        {
          "name": "name",
          "type": "string"
        },
        {
          "name": "description",
          "type": "string"
        },
        {
          "name": "renewable",
          "type": "bool"
        }
      ],
      "payable": false,
      "stateMutability": "view",
      "type": "function"
    },
    {
      "constant": false,
      "inputs": [],
      "name": "destroy",
      "outputs": [],
      "payable": false,
      "stateMutability": "nonpayable",
      "type": "function"
    },
    {
      "constant": true,
      "inputs": [
        {
          "name": "",
          "type": "address"
        }
      ],
      "name": "vendorProductCount",
      "outputs": [
        {
          "name": "",
          "type": "uint256"
        }
      ],
      "payable": false,
      "stateMutability": "view",
      "type": "function"
    },
    {
      "constant": true,
      "inputs": [
        {
          "name": "",
          "type": "address"
        }
      ],
      "name": "users",
      "outputs": [
        {
          "name": "",
          "type": "bytes32"
        }
      ],
      "payable": false,
      "stateMutability": "view",
      "type": "function"
    },
    {
      "constant": true,
      "inputs": [
        {
          "name": "_address",
          "type": "address"
        }
      ],
      "name": "get",
      "outputs": [
        {
          "name": "_pseudo",
          "type": "bytes32"
        }
      ],
      "payable": false,
      "stateMutability": "view",
      "type": "function"
    },
    {
      "constant": true,
      "inputs": [
        {
          "name": "",
          "type": "uint256"
        }
      ],
      "name": "productIds",
      "outputs": [
        {
          "name": "",
          "type": "uint256"
        }
      ],
      "payable": false,
      "stateMutability": "view",
      "type": "function"
    },
    {
      "constant": true,
      "inputs": [
        {
          "name": "",
          "type": "address"
        },
        {
          "name": "",
          "type": "uint256"
        }
      ],
      "name": "ownerToProductCount",
      "outputs": [
        {
          "name": "",
          "type": "uint256"
        }
      ],
      "payable": false,
      "stateMutability": "view",
      "type": "function"
    },
    {
      "constant": true,
      "inputs": [
        {
          "name": "_address",
          "type": "address"
        }
      ],
      "name": "exists",
      "outputs": [
        {
          "name": "_exists",
          "type": "bool"
        }
      ],
      "payable": false,
      "stateMutability": "view",
      "type": "function"
    },
    {
      "anonymous": false,
      "inputs": [
        {
          "indexed": false,
          "name": "productId",
          "type": "uint256"
        },
        {
          "indexed": false,
          "name": "price",
          "type": "uint256"
        },
        {
          "indexed": false,
          "name": "available",
          "type": "uint256"
        },
        {
          "indexed": false,
          "name": "supply",
          "type": "uint256"
        },
        {
          "indexed": false,
          "name": "sold",
          "type": "uint256"
        },
        {
          "indexed": false,
          "name": "interval",
          "type": "uint256"
        },
        {
          "indexed": false,
          "name": "name",
          "type": "string"
        },
        {
          "indexed": false,
          "name": "description",
          "type": "string"
        },
        {
          "indexed": false,
          "name": "renewable",
          "type": "bool"
        }
      ],
      "name": "ProductCreated",
      "type": "event"
    },
    {
      "anonymous": false,
      "inputs": [
        {
          "indexed": false,
          "name": "productId",
          "type": "uint256"
        },
        {
          "indexed": false,
          "name": "vendor",
          "type": "address"
        },
        {
          "indexed": false,
          "name": "buyer",
          "type": "address"
        }
      ],
      "name": "ProductBought",
      "type": "event"
    },
    {
      "anonymous": false,
      "inputs": [
        {
          "indexed": true,
          "name": "_address",
          "type": "address"
        },
        {
          "indexed": false,
          "name": "_pseudo",
          "type": "bytes32"
        }
      ],
      "name": "UserCreated",
      "type": "event"
    },
    {
      "anonymous": false,
      "inputs": [
        {
          "indexed": true,
          "name": "_address",
          "type": "address"
        }
      ],
      "name": "UserDestroyed",
      "type": "event"
    },
    {
      "constant": true,
      "inputs": [
        {
          "name": "_productId",
          "type": "uint256"
        }
      ],
      "name": "priceOf",
      "outputs": [
        {
          "name": "",
          "type": "uint256"
        }
      ],
      "payable": false,
      "stateMutability": "view",
      "type": "function"
    },
    {
      "constant": true,
      "inputs": [
        {
          "name": "_productId",
          "type": "uint256"
        }
      ],
      "name": "availableAmountOf",
      "outputs": [
        {
          "name": "available",
          "type": "uint256"
        }
      ],
      "payable": false,
      "stateMutability": "view",
      "type": "function"
    },
    {
      "constant": true,
      "inputs": [
        {
          "name": "_productId",
          "type": "uint256"
        }
      ],
      "name": "supplyOf",
      "outputs": [
        {
          "name": "",
          "type": "uint256"
        }
      ],
      "payable": false,
      "stateMutability": "view",
      "type": "function"
    },
    {
      "constant": true,
      "inputs": [
        {
          "name": "_productId",
          "type": "uint256"
        }
      ],
      "name": "amountSold",
      "outputs": [
        {
          "name": "",
          "type": "uint256"
        }
      ],
      "payable": false,
      "stateMutability": "view",
      "type": "function"
    },
    {
      "constant": true,
      "inputs": [
        {
          "name": "_productId",
          "type": "uint256"
        }
      ],
      "name": "intervalOf",
      "outputs": [
        {
          "name": "",
          "type": "uint256"
        }
      ],
      "payable": false,
      "stateMutability": "view",
      "type": "function"
    },
    {
      "constant": true,
      "inputs": [
        {
          "name": "_productId",
          "type": "uint256"
        }
      ],
      "name": "nameOf",
      "outputs": [
        {
          "name": "",
          "type": "string"
        }
      ],
      "payable": false,
      "stateMutability": "view",
      "type": "function"
    },
    {
      "constant": true,
      "inputs": [
        {
          "name": "_productId",
          "type": "uint256"
        }
      ],
      "name": "descriptionOf",
      "outputs": [
        {
          "name": "",
          "type": "string"
        }
      ],
      "payable": false,
      "stateMutability": "view",
      "type": "function"
    },
    {
      "constant": true,
      "inputs": [
        {
          "name": "_productId",
          "type": "uint256"
        }
      ],
      "name": "isRenewable",
      "outputs": [
        {
          "name": "",
          "type": "bool"
        }
      ],
      "payable": false,
      "stateMutability": "view",
      "type": "function"
    },
    {
      "constant": false,
      "inputs": [
        {
          "name": "_id",
          "type": "uint256"
        },
        {
          "name": "_price",
          "type": "uint256"
        },
        {
          "name": "_available",
          "type": "uint256"
        },
        {
          "name": "_initialSupply",
          "type": "uint256"
        },
        {
          "name": "_interval",
          "type": "uint256"
        },
        {
          "name": "_name",
          "type": "string"
        },
        {
          "name": "_description",
          "type": "string"
        },
        {
          "name": "_renewable",
          "type": "bool"
        }
      ],
      "name": "registerProduct",
      "outputs": [],
      "payable": false,
      "stateMutability": "nonpayable",
      "type": "function"
    }
  ],
  "bytecode": "0x608060405234801561001057600080fd5b50610f18806100206000396000f3006080604052600436106101115763ffffffff7c0100000000000000000000000000000000000000000000000000000000600035041663051a266481146101165780632895d759146101a3578063380c7a67146101cd5780633e0fb267146101e257806355ef3cef146101fa57806360f19a46146102125780636f1ee18d146102c25780637368a8ce146102f65780637acc0b201461030e57806383197ef0146104395780638806792f1461044e578063959a8dd914610466578063a87430ba14610487578063b369af71146104a8578063b9186d7d146104c0578063c2bc2efc146104d8578063cb51bba9146104f9578063cde317af14610511578063f47cc7311461053d578063f6a3d24e14610561575b600080fd5b34801561012257600080fd5b5061012e600435610582565b6040805160208082528351818301528351919283929083019185019080838360005b83811015610168578181015183820152602001610150565b50505050905090810190601f1680156101955780820380516001836020036101000a031916815260200191505b509250505060405180910390f35b3480156101af57600080fd5b506101bb600435610626565b60408051918252519081900360200190f35b3480156101d957600080fd5b506101bb61063b565b3480156101ee57600080fd5b5061012e600435610666565b34801561020657600080fd5b506101bb6004356106d3565b34801561021e57600080fd5b50604080516020600460a43581810135601f81018490048402850184019095528484526102c09482359460248035956044359560643595608435953695929460c494920191819084018382808284375050604080516020601f89358b018035918201839004830284018301909452808352979a9998810197919650918201945092508291508401838280828437509497505050509135151592506106e8915050565b005b3480156102ce57600080fd5b506102da600435610799565b60408051600160a060020a039092168252519081900360200190f35b34801561030257600080fd5b506102c06004356107b4565b34801561031a57600080fd5b506103266004356107fc565b604051808a8152602001898152602001888152602001878152602001868152602001858152602001806020018060200184151515158152602001838103835286818151815260200191508051906020019080838360005b8381101561039557818101518382015260200161037d565b50505050905090810190601f1680156103c25780820380516001836020036101000a031916815260200191505b50838103825285518152855160209182019187019080838360005b838110156103f55781810151838201526020016103dd565b50505050905090810190601f1680156104225780820380516001836020036101000a031916815260200191505b509b50505050505050505050505060405180910390f35b34801561044557600080fd5b506102c061096f565b34801561045a57600080fd5b506101bb6004356109bd565b34801561047257600080fd5b506101bb600160a060020a03600435166109d3565b34801561049357600080fd5b506101bb600160a060020a03600435166109e5565b3480156104b457600080fd5b506101bb6004356109f7565b3480156104cc57600080fd5b506101bb600435610a0c565b3480156104e457600080fd5b506101bb600160a060020a0360043516610a21565b34801561050557600080fd5b506101bb600435610a53565b34801561051d57600080fd5b50610529600435610a72565b604080519115158252519081900360200190f35b34801561054957600080fd5b506101bb600160a060020a0360043516602435610a8a565b34801561056d57600080fd5b50610529600160a060020a0360043516610aa7565b60008181526003602090815260409182902060060180548351601f600260001961010060018616150201909316929092049182018490048402810184019094528084526060939283018282801561061a5780601f106105ef5761010080835404028352916020019161061a565b820191906000526020600020905b8154815290600101906020018083116105fd57829003601f168201915b50505050509050919050565b60009081526003602052604090206004015490565b600061064633610aa7565b151561065157600080fd5b50336000908152602081905260409020545b90565b60008181526003602090815260409182902060070180548351601f600260001961010060018616150201909316929092049182018490048402810184019094528084526060939283018282801561061a5780601f106105ef5761010080835404028352916020019161061a565b60009081526003602052604090206002015490565b8486111561077d57604080517f08c379a000000000000000000000000000000000000000000000000000000000815260206004820152603a60248201527f537570706c792073686f756c642062652067726561746572207468616e206f7260448201527f20657175616c20746f20616d6f756e7420617661696c61626c65000000000000606482015290519081900360840190fd5b61078f88888888600089898989610ac4565b5050505050505050565b600460205260009081526040902054600160a060020a031681565b3360008181526020818152604091829020849055815184815291517f18ec7dd8c4d713eb3c2e0c61825f878a47e207600626611c5bc15009c743b4b69281900390910190a250565b6003602052806000526040600020600091509050806000015490806001015490806002015490806003015490806004015490806005015490806006018054600181600116156101000203166002900480601f0160208091040260200160405190810160405280929190818152602001828054600181600116156101000203166002900480156108cc5780601f106108a1576101008083540402835291602001916108cc565b820191906000526020600020905b8154815290600101906020018083116108af57829003601f168201915b5050505060078301805460408051602060026001851615610100026000190190941693909304601f810184900484028201840190925281815294959493509083018282801561095c5780601f106109315761010080835404028352916020019161095c565b820191906000526020600020905b81548152906001019060200180831161093f57829003601f168201915b5050506008909301549192505060ff1689565b61097833610aa7565b151561098357600080fd5b33600081815260208190526040808220829055517f36539d9970f057e4d26f828835b69fcfff15ff997f804dace8aed405cb98455f9190a2565b6000908152600360208190526040909120015490565b60026020526000908152604090205481565b60006020819052908152604090205481565b60009081526003602052604090206005015490565b60009081526003602052604090206001015490565b6000610a2c82610aa7565b1515610a3757600080fd5b50600160a060020a031660009081526020819052604090205490565b6001805482908110610a6157fe5b600091825260209091200154905081565b60009081526003602052604090206008015460ff1690565b600560209081526000928352604080842090915290825290205481565b600160a060020a0316600090815260208190526040902054151590565b610acc610e05565b610ad58a610df2565b1515610b4257604080517f08c379a000000000000000000000000000000000000000000000000000000000815260206004820152601660248201527f50726f6475637420646f6573206e6f7420657869737400000000000000000000604482015290519081900360640190fd5b610120604051908101604052808b81526020018a8152602001898152602001888152602001878152602001868152602001858152602001848152602001831515815250905060018a908060018154018082558091505090600182039060005260206000200160009091929091909150555080600360008c8152602001908152602001600020600082015181600001556020820151816001015560408201518160020155606082015181600301556080820151816004015560a0820151816005015560c0820151816006019080519060200190610c1f929190610e54565b5060e08201518051610c3b916007840191602090910190610e54565b50610100918201516008909101805491151560ff1990921691909117905560008b8152600460209081526040808320805473ffffffffffffffffffffffffffffffffffffffff1916339081179091558352600282528083208054600101905580518e81528083018e90529081018c9052606081018b9052608081018a905260a081018990528515159381019390935261012060c0840181815288519185019190915287517f4c0808fa1d3b16bf13a9868acb93e0000658f9aa903bbf763064ee327ff61c74948f948f948f948f948f948f948f948f948f94909260e0850192610140860192908901918190849084905b83811015610d43578181015183820152602001610d2b565b50505050905090810190601f168015610d705780820380516001836020036101000a031916815260200191505b50838103825285518152855160209182019187019080838360005b83811015610da3578181015183820152602001610d8b565b50505050905090810190601f168015610dd05780820380516001836020036101000a031916815260200191505b509b50505050505050505050505060405180910390a150505050505050505050565b6000908152600360205260409020541590565b6101206040519081016040528060008152602001600081526020016000815260200160008152602001600081526020016000815260200160608152602001606081526020016000151581525090565b828054600181600116156101000203166002900490600052602060002090601f016020900481019282601f10610e9557805160ff1916838001178555610ec2565b82800160010185558215610ec2579182015b82811115610ec2578251825591602001919060010190610ea7565b50610ece929150610ed2565b5090565b61066391905b80821115610ece5760008155600101610ed85600a165627a7a723058209c8cb522ab8dc0ee6a9aef6e67b8bfdf57c2a02318279d6ca6951ac1a0fdc3650029",
  "source": "pragma solidity ^0.4.15;\r\n\r\nimport \"./Users.sol\";\r\n\r\ncontract ProductManager is Users {\r\n    struct Product {\r\n        uint256 id;\r\n        uint256 price;\r\n        uint256 available;\r\n        uint256 supply;\r\n        uint256 sold;\r\n        uint256 interval;\r\n        string name;\r\n        string description;\r\n        bool renewable;\r\n    }\r\n\r\n    uint256[] public productIds; \r\n\r\n\r\n    mapping (address => uint256) public vendorProductCount;\r\n    \r\n\r\n    mapping (uint256 => Product) public products;\r\n    mapping (uint256 => address) public productIdToVendor;\r\n\r\n    mapping (address => mapping(uint256 => uint256)) public ownerToProductCount;\r\n\r\n    event ProductCreated(uint256 productId, uint256 price, uint256 available, uint256 supply, uint256 sold, uint256 interval, string name, string description, bool renewable);\r\n    event ProductBought(uint256 productId, address vendor, address buyer);\r\n\r\n\r\n    modifier onlyVendor(uint256 _id) {\r\n        require(msg.sender == productIdToVendor[_id], \"Sender is not the vendor of this product\");\r\n        _;\r\n    }\r\n\r\n    function priceOf(uint256 _productId) public view returns (uint256) {\r\n        return products[_productId].price;\r\n    }\r\n\r\n    function availableAmountOf(uint256 _productId) public view returns (uint256 available) {\r\n        return products[_productId].available;\r\n    }\r\n\r\n    function supplyOf(uint256 _productId) public view returns (uint256) {\r\n        return products[_productId].supply;\r\n    }\r\n\r\n    function amountSold(uint256 _productId) public view returns (uint256) {\r\n        return products[_productId].sold;\r\n    }\r\n\r\n    function intervalOf(uint256 _productId) public view returns (uint256) {\r\n        return products[_productId].interval;\r\n    }\r\n\r\n    function nameOf(uint256 _productId) public view returns (string) {\r\n        return products[_productId].name;\r\n    }\r\n\r\n    function descriptionOf(uint256 _productId) public view returns (string) {\r\n        return products[_productId].description;\r\n    }\r\n\r\n    function isRenewable(uint256 _productId) public view returns (bool) {\r\n        return products[_productId].renewable;\r\n    }\r\n\r\n    function _productExists(uint256 _productId) internal view returns (bool) {\r\n        return (products[_productId].id != 0);\r\n    } \r\n\r\n    function _productDoesNotExist(uint256 _productId) internal view returns (bool) {\r\n        return (products[_productId].id == 0);\r\n    } \r\n\r\n    function _createProduct(uint256 _id, uint256 _price, uint256 _available, \r\n            uint256 _supply, uint256 _sold, uint256 _interval, string _productName,\r\n            string _description, bool _renewable) internal {\r\n        require(_productDoesNotExist(_id), \"Product does not exist\");\r\n        Product memory product = Product({\r\n            id: _id,\r\n            price: _price,\r\n            available: _available, \r\n            supply: _supply,\r\n            sold: _sold,\r\n            interval: _interval,\r\n            name: _productName,\r\n            description: _description,\r\n            renewable: _renewable\r\n        });\r\n        productIds.push(_id);\r\n        products[_id] = product;\r\n        productIdToVendor[_id] = msg.sender;\r\n        vendorProductCount[msg.sender]++;\r\n        emit ProductCreated(_id, _price, _available, _supply, _sold, _interval, _productName, _description, _renewable);\r\n    }\r\n\r\n    \r\n    function registerProduct(uint256 _id, uint256 _price, uint256 _available, uint256 _initialSupply, uint256 _interval, string _name, string _description, bool _renewable) public {\r\n        require(_available <= _initialSupply, \"Supply should be greater than or equal to amount available\");\r\n        _createProduct(_id, _price, _available, _initialSupply, 0, _interval, _name, _description, _renewable);\r\n    }\r\n\r\n    \r\n    function _buyProduct(uint256 _productId, address _buyer) internal {\r\n        require(availableAmountOf(_productId) > 0, \"Not enough stock available\");\r\n        Product storage product = products[_productId];\r\n        product.supply--;\r\n        product.available--;\r\n        product.sold++;\r\n        ownerToProductCount[_buyer][_productId]++;\r\n        emit ProductBought(_productId, productIdToVendor[_productId], _buyer);\r\n    }\r\n    \r\n\r\n\r\n  \r\n}",
  "sourcePath": "C:\\Users\\Jules\\Pictures\\UPD\\Y4A\\cs198\\DRMblockchain\\contracts\\ProductManager.sol",
  "compiler": {
    "name": "solc",
    "version": "0.4.24+commit.e67f0147.Emscripten.clang"
  },
  "schemaVersion": "2.0.1",
  "updatedAt": "2018-10-30T11:06:42.252Z"
}