{
  "contractName": "ProductManager",
  "abi": [
    {
      "constant": true,
      "inputs": [],
      "name": "authenticate",
      "outputs": [
        {
          "name": "_pseudo",
          "type": "bytes32"
        }
      ],
      "payable": false,
      "stateMutability": "view",
      "type": "function"
    },
    {
      "constant": true,
      "inputs": [
        {
          "name": "",
          "type": "uint256"
        }
      ],
      "name": "productIdToVendor",
      "outputs": [
        {
          "name": "",
          "type": "address"
        }
      ],
      "payable": false,
      "stateMutability": "view",
      "type": "function"
    },
    {
      "constant": false,
      "inputs": [
        {
          "name": "_pseudo",
          "type": "bytes32"
        }
      ],
      "name": "create",
      "outputs": [],
      "payable": false,
      "stateMutability": "nonpayable",
      "type": "function"
    },
    {
      "constant": true,
      "inputs": [
        {
          "name": "",
          "type": "uint256"
        }
      ],
      "name": "products",
      "outputs": [
        {
          "name": "id",
          "type": "uint256"
        },
        {
          "name": "price",
          "type": "uint256"
        },
        {
          "name": "available",
          "type": "uint256"
        },
        {
          "name": "supply",
          "type": "uint256"
        },
        {
          "name": "sold",
          "type": "uint256"
        },
        {
          "name": "interval",
          "type": "uint256"
        },
        {
          "name": "name",
          "type": "string"
        },
        {
          "name": "renewable",
          "type": "bool"
        }
      ],
      "payable": false,
      "stateMutability": "view",
      "type": "function"
    },
    {
      "constant": false,
      "inputs": [],
      "name": "destroy",
      "outputs": [],
      "payable": false,
      "stateMutability": "nonpayable",
      "type": "function"
    },
    {
      "constant": true,
      "inputs": [
        {
          "name": "",
          "type": "address"
        }
      ],
      "name": "vendorProductCount",
      "outputs": [
        {
          "name": "",
          "type": "uint256"
        }
      ],
      "payable": false,
      "stateMutability": "view",
      "type": "function"
    },
    {
      "constant": true,
      "inputs": [
        {
          "name": "",
          "type": "address"
        }
      ],
      "name": "users",
      "outputs": [
        {
          "name": "",
          "type": "bytes32"
        }
      ],
      "payable": false,
      "stateMutability": "view",
      "type": "function"
    },
    {
      "constant": true,
      "inputs": [
        {
          "name": "_address",
          "type": "address"
        }
      ],
      "name": "get",
      "outputs": [
        {
          "name": "_pseudo",
          "type": "bytes32"
        }
      ],
      "payable": false,
      "stateMutability": "view",
      "type": "function"
    },
    {
      "constant": true,
      "inputs": [
        {
          "name": "",
          "type": "uint256"
        }
      ],
      "name": "productIds",
      "outputs": [
        {
          "name": "",
          "type": "uint256"
        }
      ],
      "payable": false,
      "stateMutability": "view",
      "type": "function"
    },
    {
      "constant": true,
      "inputs": [
        {
          "name": "",
          "type": "address"
        },
        {
          "name": "",
          "type": "uint256"
        }
      ],
      "name": "ownerToProductCount",
      "outputs": [
        {
          "name": "",
          "type": "uint256"
        }
      ],
      "payable": false,
      "stateMutability": "view",
      "type": "function"
    },
    {
      "constant": true,
      "inputs": [
        {
          "name": "_address",
          "type": "address"
        }
      ],
      "name": "exists",
      "outputs": [
        {
          "name": "_exists",
          "type": "bool"
        }
      ],
      "payable": false,
      "stateMutability": "view",
      "type": "function"
    },
    {
      "anonymous": false,
      "inputs": [
        {
          "indexed": false,
          "name": "productId",
          "type": "uint256"
        },
        {
          "indexed": false,
          "name": "price",
          "type": "uint256"
        },
        {
          "indexed": false,
          "name": "available",
          "type": "uint256"
        },
        {
          "indexed": false,
          "name": "supply",
          "type": "uint256"
        },
        {
          "indexed": false,
          "name": "sold",
          "type": "uint256"
        },
        {
          "indexed": false,
          "name": "interval",
          "type": "uint256"
        },
        {
          "indexed": false,
          "name": "name",
          "type": "string"
        },
        {
          "indexed": false,
          "name": "renewable",
          "type": "bool"
        }
      ],
      "name": "ProductCreated",
      "type": "event"
    },
    {
      "anonymous": false,
      "inputs": [
        {
          "indexed": false,
          "name": "productId",
          "type": "uint256"
        },
        {
          "indexed": false,
          "name": "vendor",
          "type": "address"
        },
        {
          "indexed": false,
          "name": "buyer",
          "type": "address"
        }
      ],
      "name": "ProductBought",
      "type": "event"
    },
    {
      "anonymous": false,
      "inputs": [
        {
          "indexed": true,
          "name": "_address",
          "type": "address"
        },
        {
          "indexed": false,
          "name": "_pseudo",
          "type": "bytes32"
        }
      ],
      "name": "UserCreated",
      "type": "event"
    },
    {
      "anonymous": false,
      "inputs": [
        {
          "indexed": true,
          "name": "_address",
          "type": "address"
        }
      ],
      "name": "UserDestroyed",
      "type": "event"
    },
    {
      "constant": true,
      "inputs": [
        {
          "name": "_productId",
          "type": "uint256"
        }
      ],
      "name": "priceOf",
      "outputs": [
        {
          "name": "",
          "type": "uint256"
        }
      ],
      "payable": false,
      "stateMutability": "view",
      "type": "function"
    },
    {
      "constant": true,
      "inputs": [
        {
          "name": "_productId",
          "type": "uint256"
        }
      ],
      "name": "availableAmountOf",
      "outputs": [
        {
          "name": "",
          "type": "uint256"
        }
      ],
      "payable": false,
      "stateMutability": "view",
      "type": "function"
    },
    {
      "constant": true,
      "inputs": [
        {
          "name": "_productId",
          "type": "uint256"
        }
      ],
      "name": "supplyOf",
      "outputs": [
        {
          "name": "",
          "type": "uint256"
        }
      ],
      "payable": false,
      "stateMutability": "view",
      "type": "function"
    },
    {
      "constant": true,
      "inputs": [
        {
          "name": "_productId",
          "type": "uint256"
        }
      ],
      "name": "amountSold",
      "outputs": [
        {
          "name": "",
          "type": "uint256"
        }
      ],
      "payable": false,
      "stateMutability": "view",
      "type": "function"
    },
    {
      "constant": true,
      "inputs": [
        {
          "name": "_productId",
          "type": "uint256"
        }
      ],
      "name": "intervalOf",
      "outputs": [
        {
          "name": "",
          "type": "uint256"
        }
      ],
      "payable": false,
      "stateMutability": "view",
      "type": "function"
    },
    {
      "constant": true,
      "inputs": [
        {
          "name": "_productId",
          "type": "uint256"
        }
      ],
      "name": "nameOf",
      "outputs": [
        {
          "name": "",
          "type": "string"
        }
      ],
      "payable": false,
      "stateMutability": "view",
      "type": "function"
    },
    {
      "constant": true,
      "inputs": [
        {
          "name": "_productId",
          "type": "uint256"
        }
      ],
      "name": "isRenewable",
      "outputs": [
        {
          "name": "",
          "type": "bool"
        }
      ],
      "payable": false,
      "stateMutability": "view",
      "type": "function"
    },
    {
      "constant": false,
      "inputs": [
        {
          "name": "_id",
          "type": "uint256"
        },
        {
          "name": "_price",
          "type": "uint256"
        },
        {
          "name": "_available",
          "type": "uint256"
        },
        {
          "name": "_initialSupply",
          "type": "uint256"
        },
        {
          "name": "_interval",
          "type": "uint256"
        },
        {
          "name": "_name",
          "type": "string"
        },
        {
          "name": "_renewable",
          "type": "bool"
        }
      ],
      "name": "registerProduct",
      "outputs": [],
      "payable": false,
      "stateMutability": "nonpayable",
      "type": "function"
    }
  ],
  "bytecode": "0x608060405234801561001057600080fd5b50610cbe806100206000396000f3006080604052600436106101065763ffffffff7c0100000000000000000000000000000000000000000000000000000000600035041663051a2664811461010b5780632895d75914610198578063380c7a67146101c257806355ef3cef146101d75780636f1ee18d146101ef5780637368a8ce146102235780637acc0b201461023d57806383197ef0146103025780638806792f14610317578063959a8dd91461032f578063a87430ba14610350578063b369af7114610371578063b9186d7d14610389578063c2bc2efc146103a1578063cb51bba9146103c2578063cde317af146103da578063de482c4b14610406578063f47cc73114610476578063f6a3d24e1461049a575b600080fd5b34801561011757600080fd5b506101236004356104bb565b6040805160208082528351818301528351919283929083019185019080838360005b8381101561015d578181015183820152602001610145565b50505050905090810190601f16801561018a5780820380516001836020036101000a031916815260200191505b509250505060405180910390f35b3480156101a457600080fd5b506101b060043561055f565b60408051918252519081900360200190f35b3480156101ce57600080fd5b506101b0610574565b3480156101e357600080fd5b506101b060043561059f565b3480156101fb57600080fd5b506102076004356105b4565b60408051600160a060020a039092168252519081900360200190f35b34801561022f57600080fd5b5061023b6004356105cf565b005b34801561024957600080fd5b50610255600435610617565b604051808981526020018881526020018781526020018681526020018581526020018481526020018060200183151515158152602001828103825284818151815260200191508051906020019080838360005b838110156102c05781810151838201526020016102a8565b50505050905090810190601f1680156102ed5780820380516001836020036101000a031916815260200191505b50995050505050505050505060405180910390f35b34801561030e57600080fd5b5061023b6106fa565b34801561032357600080fd5b506101b0600435610748565b34801561033b57600080fd5b506101b0600160a060020a036004351661075e565b34801561035c57600080fd5b506101b0600160a060020a0360043516610770565b34801561037d57600080fd5b506101b0600435610782565b34801561039557600080fd5b506101b0600435610797565b3480156103ad57600080fd5b506101b0600160a060020a03600435166107ac565b3480156103ce57600080fd5b506101b06004356107de565b3480156103e657600080fd5b506103f26004356107fd565b604080519115158252519081900360200190f35b34801561041257600080fd5b50604080516020600460a43581810135601f810184900484028501840190955284845261023b9482359460248035956044359560643595608435953695929460c4949201918190840183828082843750949750505050913515159250610815915050565b34801561048257600080fd5b506101b0600160a060020a03600435166024356108c4565b3480156104a657600080fd5b506103f2600160a060020a03600435166108e1565b60008181526003602090815260409182902060060180548351601f60026000196101006001861615020190931692909204918201849004840281018401909452808452606093928301828280156105535780601f1061052857610100808354040283529160200191610553565b820191906000526020600020905b81548152906001019060200180831161053657829003601f168201915b50505050509050919050565b60009081526003602052604090206004015490565b600061057f336108e1565b151561058a57600080fd5b50336000908152602081905260409020545b90565b60009081526003602052604090206002015490565b600460205260009081526040902054600160a060020a031681565b3360008181526020818152604091829020849055815184815291517f18ec7dd8c4d713eb3c2e0c61825f878a47e207600626611c5bc15009c743b4b69281900390910190a250565b6003602052806000526040600020600091509050806000015490806001015490806002015490806003015490806004015490806005015490806006018054600181600116156101000203166002900480601f0160208091040260200160405190810160405280929190818152602001828054600181600116156101000203166002900480156106e75780601f106106bc576101008083540402835291602001916106e7565b820191906000526020600020905b8154815290600101906020018083116106ca57829003601f168201915b5050506007909301549192505060ff1688565b610703336108e1565b151561070e57600080fd5b33600081815260208190526040808220829055517f36539d9970f057e4d26f828835b69fcfff15ff997f804dace8aed405cb98455f9190a2565b6000908152600360208190526040909120015490565b60026020526000908152604090205481565b60006020819052908152604090205481565b60009081526003602052604090206005015490565b60009081526003602052604090206001015490565b60006107b7826108e1565b15156107c257600080fd5b50600160a060020a031660009081526020819052604090205490565b60018054829081106107ec57fe5b600091825260209091200154905081565b60009081526003602052604090206007015460ff1690565b838511156108aa57604080517f08c379a000000000000000000000000000000000000000000000000000000000815260206004820152603a60248201527f537570706c792073686f756c642062652067726561746572207468616e206f7260448201527f20657175616c20746f20616d6f756e7420617661696c61626c65000000000000606482015290519081900360840190fd5b6108bb8787878760008888886108fe565b50505050505050565b600560209081526000928352604080842090915290825290205481565b600160a060020a0316600090815260208190526040902054151590565b610906610bb2565b61090f89610b9f565b151561097c57604080517f08c379a000000000000000000000000000000000000000000000000000000000815260206004820152601660248201527f50726f6475637420646f6573206e6f7420657869737400000000000000000000604482015290519081900360640190fd5b610100604051908101604052808a81526020018981526020018881526020018781526020018681526020018581526020018481526020018315158152509050600189908060018154018082558091505090600182039060005260206000200160009091929091909150555080600360008b8152602001908152602001600020600082015181600001556020820151816001015560408201518160020155606082015181600301556080820151816004015560a0820151816005015560c0820151816006019080519060200190610a53929190610bfa565b5060e0918201516007909101805491151560ff1990921691909117905560008a8152600460209081526040808320805473ffffffffffffffffffffffffffffffffffffffff1916339081179091558352600282528083208054600101905580518d81528083018d90529081018b9052606081018a90526080810189905260a081018890528515159381019390935261010060c0840181815287519185019190915286517f90ac73df586646083f040d3ea1a64d8b6d2ad67e726d7eed248ea1f3a95ac90a948e948e948e948e948e948e948e948e949293610120850192918701918190849084905b83811015610b53578181015183820152602001610b3b565b50505050905090810190601f168015610b805780820380516001836020036101000a031916815260200191505b50995050505050505050505060405180910390a1505050505050505050565b6000908152600360205260409020541590565b61010060405190810160405280600081526020016000815260200160008152602001600081526020016000815260200160008152602001606081526020016000151581525090565b828054600181600116156101000203166002900490600052602060002090601f016020900481019282601f10610c3b57805160ff1916838001178555610c68565b82800160010185558215610c68579182015b82811115610c68578251825591602001919060010190610c4d565b50610c74929150610c78565b5090565b61059c91905b80821115610c745760008155600101610c7e5600a165627a7a7230582033f5f2eddddd721d2d680e7e2d15f5d2b9d3543be888ef5894dd68446bcce35d0029",
  "source": "pragma solidity ^0.4.15;\r\n\r\nimport \"./Users.sol\";\r\n\r\ncontract ProductManager is Users {\r\n    struct Product {\r\n        uint256 id;\r\n        uint256 price;\r\n        uint256 available;\r\n        uint256 supply;\r\n        uint256 sold;\r\n        uint256 interval;\r\n        string name;\r\n        bool renewable;\r\n    }\r\n\r\n    uint256[] public productIds; \r\n\r\n\r\n    mapping (address => uint256) public vendorProductCount;\r\n    \r\n\r\n    mapping (uint256 => Product) public products;\r\n    mapping (uint256 => address) public productIdToVendor;\r\n\r\n    mapping (address => mapping(uint256 => uint256)) public ownerToProductCount;\r\n\r\n    event ProductCreated(uint256 productId, uint256 price, uint256 available, uint256 supply, uint256 sold, uint256 interval, string name, bool renewable);\r\n    event ProductBought(uint256 productId, address vendor, address buyer);\r\n\r\n\r\n    modifier onlyVendor(uint256 _id) {\r\n        require(msg.sender == productIdToVendor[_id], \"Sender is not the vendor of this product\");\r\n        _;\r\n    }\r\n\r\n    function priceOf(uint256 _productId) public view returns (uint256) {\r\n        return products[_productId].price;\r\n    }\r\n\r\n    function availableAmountOf(uint256 _productId) public view returns (uint256) {\r\n        return products[_productId].available;\r\n    }\r\n\r\n    function supplyOf(uint256 _productId) public view returns (uint256) {\r\n        return products[_productId].supply;\r\n    }\r\n\r\n    function amountSold(uint256 _productId) public view returns (uint256) {\r\n        return products[_productId].sold;\r\n    }\r\n\r\n    function intervalOf(uint256 _productId) public view returns (uint256) {\r\n        return products[_productId].interval;\r\n    }\r\n\r\n    function nameOf(uint256 _productId) public view returns (string) {\r\n        return products[_productId].name;\r\n    }\r\n\r\n    function isRenewable(uint256 _productId) public view returns (bool) {\r\n        return products[_productId].renewable;\r\n    }\r\n\r\n    function _productExists(uint256 _productId) internal view returns (bool) {\r\n        return (products[_productId].id != 0);\r\n    } \r\n\r\n    function _productDoesNotExist(uint256 _productId) internal view returns (bool) {\r\n        return (products[_productId].id == 0);\r\n    } \r\n\r\n    function _createProduct(uint256 _id, uint256 _price, uint256 _available, \r\n            uint256 _supply, uint256 _sold, uint256 _interval, string _productName,\r\n            bool _renewable) internal {\r\n        require(_productDoesNotExist(_id), \"Product does not exist\");\r\n        Product memory product = Product(_id, _price, _available, _supply, _sold, _interval, _productName,_renewable);\r\n        productIds.push(_id);\r\n        products[_id] = product;\r\n        productIdToVendor[_id] = msg.sender;\r\n        vendorProductCount[msg.sender]++;\r\n        emit ProductCreated(_id, _price, _available, _supply, _sold, _interval, _productName, _renewable);\r\n    }\r\n\r\n    \r\n    function registerProduct(uint256 _id, uint256 _price, uint256 _available, uint256 _initialSupply, uint256 _interval, string _name, bool _renewable) public {\r\n        require(_available <= _initialSupply, \"Supply should be greater than or equal to amount available\");\r\n        _createProduct(_id, _price, _available, _initialSupply, 0, _interval, _name, _renewable);\r\n    }\r\n\r\n    \r\n    function _buyProduct(uint256 _productId, address _buyer) internal {\r\n        require(availableAmountOf(_productId) > 0, \"Not enough stock available\");\r\n        Product storage product = products[_productId];\r\n        product.supply--;\r\n        product.available--;\r\n        product.sold++;\r\n        ownerToProductCount[_buyer][_productId]++;\r\n        emit ProductBought(_productId, productIdToVendor[_productId], _buyer);\r\n    }\r\n    \r\n\r\n\r\n  \r\n}",
  "sourcePath": "C:\\Users\\Jules\\Pictures\\UPD\\Y4A\\cs198\\DRMblockchain\\contracts\\ProductManager.sol",
  "compiler": {
    "name": "solc",
    "version": "0.4.24+commit.e67f0147.Emscripten.clang"
  },
  "schemaVersion": "2.0.1",
  "updatedAt": "2018-10-29T10:28:41.063Z"
}