{
  "contractName": "ProductManager",
  "abi": [
    {
      "constant": true,
      "inputs": [],
      "name": "authenticate",
      "outputs": [
        {
          "name": "_pseudo",
          "type": "bytes32"
        }
      ],
      "payable": false,
      "stateMutability": "view",
      "type": "function"
    },
    {
      "constant": true,
      "inputs": [
        {
          "name": "",
          "type": "uint256"
        }
      ],
      "name": "productIdToVendor",
      "outputs": [
        {
          "name": "",
          "type": "address"
        }
      ],
      "payable": false,
      "stateMutability": "view",
      "type": "function"
    },
    {
      "constant": false,
      "inputs": [
        {
          "name": "_pseudo",
          "type": "bytes32"
        }
      ],
      "name": "create",
      "outputs": [],
      "payable": false,
      "stateMutability": "nonpayable",
      "type": "function"
    },
    {
      "constant": true,
      "inputs": [
        {
          "name": "",
          "type": "uint256"
        }
      ],
      "name": "products",
      "outputs": [
        {
          "name": "id",
          "type": "uint256"
        },
        {
          "name": "price",
          "type": "uint256"
        },
        {
          "name": "available",
          "type": "uint256"
        },
        {
          "name": "supply",
          "type": "uint256"
        },
        {
          "name": "sold",
          "type": "uint256"
        },
        {
          "name": "interval",
          "type": "uint256"
        },
        {
          "name": "renewable",
          "type": "bool"
        }
      ],
      "payable": false,
      "stateMutability": "view",
      "type": "function"
    },
    {
      "constant": false,
      "inputs": [],
      "name": "destroy",
      "outputs": [],
      "payable": false,
      "stateMutability": "nonpayable",
      "type": "function"
    },
    {
      "constant": true,
      "inputs": [
        {
          "name": "",
          "type": "address"
        }
      ],
      "name": "vendorProductCount",
      "outputs": [
        {
          "name": "",
          "type": "uint256"
        }
      ],
      "payable": false,
      "stateMutability": "view",
      "type": "function"
    },
    {
      "constant": true,
      "inputs": [
        {
          "name": "",
          "type": "address"
        }
      ],
      "name": "users",
      "outputs": [
        {
          "name": "",
          "type": "bytes32"
        }
      ],
      "payable": false,
      "stateMutability": "view",
      "type": "function"
    },
    {
      "constant": true,
      "inputs": [
        {
          "name": "_address",
          "type": "address"
        }
      ],
      "name": "get",
      "outputs": [
        {
          "name": "_pseudo",
          "type": "bytes32"
        }
      ],
      "payable": false,
      "stateMutability": "view",
      "type": "function"
    },
    {
      "constant": true,
      "inputs": [
        {
          "name": "",
          "type": "uint256"
        }
      ],
      "name": "productIds",
      "outputs": [
        {
          "name": "",
          "type": "uint256"
        }
      ],
      "payable": false,
      "stateMutability": "view",
      "type": "function"
    },
    {
      "constant": true,
      "inputs": [
        {
          "name": "_address",
          "type": "address"
        }
      ],
      "name": "exists",
      "outputs": [
        {
          "name": "_exists",
          "type": "bool"
        }
      ],
      "payable": false,
      "stateMutability": "view",
      "type": "function"
    },
    {
      "anonymous": false,
      "inputs": [
        {
          "indexed": false,
          "name": "productId",
          "type": "uint256"
        },
        {
          "indexed": false,
          "name": "price",
          "type": "uint256"
        },
        {
          "indexed": false,
          "name": "available",
          "type": "uint256"
        },
        {
          "indexed": false,
          "name": "supply",
          "type": "uint256"
        },
        {
          "indexed": false,
          "name": "sold",
          "type": "uint256"
        },
        {
          "indexed": false,
          "name": "interval",
          "type": "uint256"
        },
        {
          "indexed": false,
          "name": "renewable",
          "type": "bool"
        }
      ],
      "name": "ProductCreated",
      "type": "event"
    },
    {
      "anonymous": false,
      "inputs": [
        {
          "indexed": false,
          "name": "productId",
          "type": "uint256"
        },
        {
          "indexed": false,
          "name": "buyer",
          "type": "address"
        }
      ],
      "name": "ProductBought",
      "type": "event"
    },
    {
      "anonymous": false,
      "inputs": [
        {
          "indexed": true,
          "name": "_address",
          "type": "address"
        },
        {
          "indexed": false,
          "name": "_pseudo",
          "type": "bytes32"
        }
      ],
      "name": "UserCreated",
      "type": "event"
    },
    {
      "anonymous": false,
      "inputs": [
        {
          "indexed": true,
          "name": "_address",
          "type": "address"
        }
      ],
      "name": "UserDestroyed",
      "type": "event"
    },
    {
      "constant": true,
      "inputs": [
        {
          "name": "_productId",
          "type": "uint256"
        }
      ],
      "name": "priceOf",
      "outputs": [
        {
          "name": "",
          "type": "uint256"
        }
      ],
      "payable": false,
      "stateMutability": "view",
      "type": "function"
    },
    {
      "constant": true,
      "inputs": [
        {
          "name": "_productId",
          "type": "uint256"
        }
      ],
      "name": "availableAmountOf",
      "outputs": [
        {
          "name": "",
          "type": "uint256"
        }
      ],
      "payable": false,
      "stateMutability": "view",
      "type": "function"
    },
    {
      "constant": true,
      "inputs": [
        {
          "name": "_productId",
          "type": "uint256"
        }
      ],
      "name": "supplyOf",
      "outputs": [
        {
          "name": "",
          "type": "uint256"
        }
      ],
      "payable": false,
      "stateMutability": "view",
      "type": "function"
    },
    {
      "constant": true,
      "inputs": [
        {
          "name": "_productId",
          "type": "uint256"
        }
      ],
      "name": "amountSold",
      "outputs": [
        {
          "name": "",
          "type": "uint256"
        }
      ],
      "payable": false,
      "stateMutability": "view",
      "type": "function"
    },
    {
      "constant": true,
      "inputs": [
        {
          "name": "_productId",
          "type": "uint256"
        }
      ],
      "name": "intervalOf",
      "outputs": [
        {
          "name": "",
          "type": "uint256"
        }
      ],
      "payable": false,
      "stateMutability": "view",
      "type": "function"
    },
    {
      "constant": true,
      "inputs": [
        {
          "name": "_productId",
          "type": "uint256"
        }
      ],
      "name": "isRenewable",
      "outputs": [
        {
          "name": "",
          "type": "bool"
        }
      ],
      "payable": false,
      "stateMutability": "view",
      "type": "function"
    },
    {
      "constant": false,
      "inputs": [
        {
          "name": "_id",
          "type": "uint256"
        },
        {
          "name": "_price",
          "type": "uint256"
        },
        {
          "name": "_available",
          "type": "uint256"
        },
        {
          "name": "_initialSupply",
          "type": "uint256"
        },
        {
          "name": "_interval",
          "type": "uint256"
        },
        {
          "name": "_renewable",
          "type": "bool"
        }
      ],
      "name": "registerProduct",
      "outputs": [],
      "payable": false,
      "stateMutability": "nonpayable",
      "type": "function"
    }
  ],
  "bytecode": "0x608060405234801561001057600080fd5b50610845806100206000396000f3006080604052600436106100f05763ffffffff7c01000000000000000000000000000000000000000000000000000000006000350416632895d75981146100f5578063380c7a671461011f5780633ff641951461013457806355ef3cef1461015f5780636f1ee18d146101775780637368a8ce146101ab5780637acc0b20146101c357806383197ef0146102155780638806792f1461022a578063959a8dd914610242578063a87430ba14610263578063b369af7114610284578063b9186d7d1461029c578063c2bc2efc146102b4578063cb51bba9146102d5578063cde317af146102ed578063f6a3d24e14610319575b600080fd5b34801561010157600080fd5b5061010d60043561033a565b60408051918252519081900360200190f35b34801561012b57600080fd5b5061010d61034f565b34801561014057600080fd5b5061015d60043560243560443560643560843560a4351515610379565b005b34801561016b57600080fd5b5061010d60043561039e565b34801561018357600080fd5b5061018f6004356103b3565b60408051600160a060020a039092168252519081900360200190f35b3480156101b757600080fd5b5061015d6004356103ce565b3480156101cf57600080fd5b506101db600435610416565b604080519788526020880196909652868601949094526060860192909252608085015260a0840152151560c0830152519081900360e00190f35b34801561022157600080fd5b5061015d610457565b34801561023657600080fd5b5061010d6004356104a5565b34801561024e57600080fd5b5061010d600160a060020a03600435166104bb565b34801561026f57600080fd5b5061010d600160a060020a03600435166104cd565b34801561029057600080fd5b5061010d6004356104df565b3480156102a857600080fd5b5061010d6004356104f4565b3480156102c057600080fd5b5061010d600160a060020a0360043516610509565b3480156102e157600080fd5b5061010d60043561053b565b3480156102f957600080fd5b5061030560043561055a565b604080519115158252519081900360200190f35b34801561032557600080fd5b50610305600160a060020a0360043516610572565b60009081526003602052604090206004015490565b600061035a33610572565b151561036557600080fd5b503360009081526020819052604090205490565b8284111561038657600080fd5b610396868686866000878761058f565b505050505050565b60009081526003602052604090206002015490565b600460205260009081526040902054600160a060020a031681565b3360008181526020818152604091829020849055815184815291517f18ec7dd8c4d713eb3c2e0c61825f878a47e207600626611c5bc15009c743b4b69281900390910190a250565b600360208190526000918252604090912080546001820154600283015493830154600484015460058501546006909501549395929492939192909160ff1687565b61046033610572565b151561046b57600080fd5b33600081815260208190526040808220829055517f36539d9970f057e4d26f828835b69fcfff15ff997f804dace8aed405cb98455f9190a2565b6000908152600360208190526040909120015490565b60026020526000908152604090205481565b60006020819052908152604090205481565b60009081526003602052604090206005015490565b60009081526003602052604090206001015490565b600061051482610572565b151561051f57600080fd5b50600160a060020a031660009081526020819052604090205490565b600180548290811061054957fe5b600091825260209091200154905081565b60009081526003602052604090206006015460ff1690565b600160a060020a0316600090815260208190526040902054151590565b6105976107d9565b6105a0886107c6565b151561060d57604080517f08c379a000000000000000000000000000000000000000000000000000000000815260206004820152601660248201527f50726f6475637420646f6573206e6f7420657869737400000000000000000000604482015290519081900360640190fd5b60e0604051908101604052808981526020018881526020018781526020018681526020018581526020018481526020018315158152509050600188908060018154018082558091505090600182039060005260206000200160009091929091909150555080600360008a8152602001908152602001600020600082015181600001556020820151816001015560408201518160020155606082015181600301556080820151816004015560a0820151816005015560c08201518160060160006101000a81548160ff02191690831515021790555090505033600460008a815260200190815260200160002060006101000a815481600160a060020a030219169083600160a060020a031602179055506002600033600160a060020a0316600160a060020a03168152602001908152602001600020600081548092919060010191905055507f59602036a4d5ddc6d26a204732c88deed66e3cbd4e5bd29fb7d85ca6eca3b21288888888888888604051808881526020018781526020018681526020018581526020018481526020018381526020018215151515815260200197505050505050505060405180910390a15050505050505050565b6000908152600360205260409020541590565b60e06040519081016040528060008152602001600081526020016000815260200160008152602001600081526020016000815260200160001515815250905600a165627a7a723058205445250c353e01ba639aba72cf9279bc18df02ddba35ae18b809430bce0e84cd0029",
  "source": "pragma solidity ^0.4.15;\r\n\r\nimport \"./Users.sol\";\r\n\r\ncontract ProductManager is Users {\r\n    struct Product {\r\n        uint256 id;\r\n        uint256 price;\r\n        uint256 available;\r\n        uint256 supply;\r\n        uint256 sold;\r\n        uint256 interval;\r\n        bool renewable;\r\n    }\r\n\r\n    uint256[] public productIds; \r\n\r\n\r\n    mapping (address => uint256) public vendorProductCount;\r\n    \r\n\r\n    mapping (uint256 => Product) public products;\r\n    mapping (uint256 => address) public productIdToVendor;\r\n\r\n\r\n    event ProductCreated(uint256 productId, uint256 price, uint256 available, uint256 supply, uint256 sold, uint256 interval, bool renewable);\r\n    event ProductBought(uint256 productId, address buyer);\r\n\r\n\r\n    modifier onlyVendor(uint256 _id) {\r\n        require(msg.sender == productIdToVendor[_id], \"Sender is not the vendor of this product\");\r\n        _;\r\n    }\r\n\r\n    function priceOf(uint256 _productId) public view returns (uint256) {\r\n        return products[_productId].price;\r\n    }\r\n\r\n    function availableAmountOf(uint256 _productId) public view returns (uint256) {\r\n        return products[_productId].available;\r\n    }\r\n\r\n    function supplyOf(uint256 _productId) public view returns (uint256) {\r\n        return products[_productId].supply;\r\n    }\r\n\r\n    function amountSold(uint256 _productId) public view returns (uint256) {\r\n        return products[_productId].sold;\r\n    }\r\n\r\n    function intervalOf(uint256 _productId) public view returns (uint256) {\r\n        return products[_productId].interval;\r\n    }\r\n\r\n    function isRenewable(uint256 _productId) public view returns (bool) {\r\n        return products[_productId].renewable;\r\n    }\r\n\r\n\r\n    function _productExists(uint256 _productId) internal view returns (bool) {\r\n        return (products[_productId].id != 0);\r\n    } \r\n\r\n    function _productDoesNotExist(uint256 _productId) internal view returns (bool) {\r\n        return (products[_productId].id == 0);\r\n    } \r\n\r\n    function _createProduct(uint256 _id, uint256 _price, uint256 _available, \r\n            uint256 _supply, uint256 _sold, uint256 _interval, \r\n            bool _renewable) internal {\r\n        require(_productDoesNotExist(_id), \"Product does not exist\");\r\n        Product memory product = Product(_id, _price, _available, _supply, _sold, _interval, _renewable);\r\n        productIds.push(_id);\r\n        products[_id] = product;\r\n        productIdToVendor[_id] = msg.sender;\r\n        vendorProductCount[msg.sender]++;\r\n        emit ProductCreated(_id, _price, _available, _supply, _sold, _interval, _renewable);\r\n    }\r\n\r\n    \r\n    function registerProduct(uint256 _id, uint256 _price, uint256 _available, uint256 _initialSupply, uint256 _interval, bool _renewable) public {\r\n        require(_available <= _initialSupply);\r\n        _createProduct(_id, _price, _available, _initialSupply, 0, _interval, _renewable);\r\n    }\r\n    \r\n    \r\n\r\n    \r\n    function _buyProduct(uint256 _productId, address _buyer) internal {\r\n        require(availableAmountOf(_productId) > 0, \"Not enough stock available\");\r\n        Product product = products[_productId];\r\n        product.supply--;\r\n        product.available--;\r\n        product.sold++;\r\n        emit ProductBought(_productId, _buyer);\r\n    }\r\n    \r\n\r\n\r\n  \r\n}",
  "sourcePath": "C:\\Users\\Carlos\\Desktop\\Thesis\\drmblockchain\\contracts\\ProductManager.sol",
  "compiler": {
    "name": "solc",
    "version": "0.4.24+commit.e67f0147.Emscripten.clang"
  },
  "schemaVersion": "2.0.1",
  "updatedAt": "2018-10-29T08:51:56.221Z"
}