{
  "contractName": "ProductManager",
  "abi": [
    {
      "constant": true,
      "inputs": [],
      "name": "authenticate",
      "outputs": [
        {
          "name": "_pseudo",
          "type": "bytes32"
        }
      ],
      "payable": false,
      "stateMutability": "view",
      "type": "function"
    },
    {
      "constant": true,
      "inputs": [
        {
          "name": "",
          "type": "uint256"
        }
      ],
      "name": "productIdToVendor",
      "outputs": [
        {
          "name": "",
          "type": "address"
        }
      ],
      "payable": false,
      "stateMutability": "view",
      "type": "function"
    },
    {
      "constant": false,
      "inputs": [
        {
          "name": "_pseudo",
          "type": "bytes32"
        }
      ],
      "name": "create",
      "outputs": [],
      "payable": false,
      "stateMutability": "nonpayable",
      "type": "function"
    },
    {
      "constant": true,
      "inputs": [
        {
          "name": "",
          "type": "uint256"
        }
      ],
      "name": "products",
      "outputs": [
        {
          "name": "id",
          "type": "uint256"
        },
        {
          "name": "price",
          "type": "uint256"
        },
        {
          "name": "available",
          "type": "uint256"
        },
        {
          "name": "supply",
          "type": "uint256"
        },
        {
          "name": "sold",
          "type": "uint256"
        },
        {
          "name": "interval",
          "type": "uint256"
        },
        {
          "name": "renewable",
          "type": "bool"
        }
      ],
      "payable": false,
      "stateMutability": "view",
      "type": "function"
    },
    {
      "constant": false,
      "inputs": [],
      "name": "destroy",
      "outputs": [],
      "payable": false,
      "stateMutability": "nonpayable",
      "type": "function"
    },
    {
      "constant": true,
      "inputs": [
        {
          "name": "",
          "type": "address"
        }
      ],
      "name": "vendorProductCount",
      "outputs": [
        {
          "name": "",
          "type": "uint256"
        }
      ],
      "payable": false,
      "stateMutability": "view",
      "type": "function"
    },
    {
      "constant": true,
      "inputs": [
        {
          "name": "",
          "type": "address"
        }
      ],
      "name": "users",
      "outputs": [
        {
          "name": "",
          "type": "bytes32"
        }
      ],
      "payable": false,
      "stateMutability": "view",
      "type": "function"
    },
    {
      "constant": true,
      "inputs": [
        {
          "name": "_address",
          "type": "address"
        }
      ],
      "name": "get",
      "outputs": [
        {
          "name": "_pseudo",
          "type": "bytes32"
        }
      ],
      "payable": false,
      "stateMutability": "view",
      "type": "function"
    },
    {
      "constant": true,
      "inputs": [
        {
          "name": "",
          "type": "uint256"
        }
      ],
      "name": "productIds",
      "outputs": [
        {
          "name": "",
          "type": "uint256"
        }
      ],
      "payable": false,
      "stateMutability": "view",
      "type": "function"
    },
    {
      "constant": true,
      "inputs": [
        {
          "name": "",
          "type": "address"
        },
        {
          "name": "",
          "type": "uint256"
        }
      ],
      "name": "ownerToProductCount",
      "outputs": [
        {
          "name": "",
          "type": "uint256"
        }
      ],
      "payable": false,
      "stateMutability": "view",
      "type": "function"
    },
    {
      "constant": true,
      "inputs": [
        {
          "name": "_address",
          "type": "address"
        }
      ],
      "name": "exists",
      "outputs": [
        {
          "name": "_exists",
          "type": "bool"
        }
      ],
      "payable": false,
      "stateMutability": "view",
      "type": "function"
    },
    {
      "anonymous": false,
      "inputs": [
        {
          "indexed": false,
          "name": "productId",
          "type": "uint256"
        },
        {
          "indexed": false,
          "name": "price",
          "type": "uint256"
        },
        {
          "indexed": false,
          "name": "available",
          "type": "uint256"
        },
        {
          "indexed": false,
          "name": "supply",
          "type": "uint256"
        },
        {
          "indexed": false,
          "name": "sold",
          "type": "uint256"
        },
        {
          "indexed": false,
          "name": "interval",
          "type": "uint256"
        },
        {
          "indexed": false,
          "name": "renewable",
          "type": "bool"
        }
      ],
      "name": "ProductCreated",
      "type": "event"
    },
    {
      "anonymous": false,
      "inputs": [
        {
          "indexed": false,
          "name": "productId",
          "type": "uint256"
        },
        {
          "indexed": false,
          "name": "vendor",
          "type": "address"
        },
        {
          "indexed": false,
          "name": "buyer",
          "type": "address"
        }
      ],
      "name": "ProductBought",
      "type": "event"
    },
    {
      "anonymous": false,
      "inputs": [
        {
          "indexed": true,
          "name": "_address",
          "type": "address"
        },
        {
          "indexed": false,
          "name": "_pseudo",
          "type": "bytes32"
        }
      ],
      "name": "UserCreated",
      "type": "event"
    },
    {
      "anonymous": false,
      "inputs": [
        {
          "indexed": true,
          "name": "_address",
          "type": "address"
        }
      ],
      "name": "UserDestroyed",
      "type": "event"
    },
    {
      "constant": true,
      "inputs": [
        {
          "name": "_productId",
          "type": "uint256"
        }
      ],
      "name": "priceOf",
      "outputs": [
        {
          "name": "",
          "type": "uint256"
        }
      ],
      "payable": false,
      "stateMutability": "view",
      "type": "function"
    },
    {
      "constant": true,
      "inputs": [
        {
          "name": "_productId",
          "type": "uint256"
        }
      ],
      "name": "availableAmountOf",
      "outputs": [
        {
          "name": "",
          "type": "uint256"
        }
      ],
      "payable": false,
      "stateMutability": "view",
      "type": "function"
    },
    {
      "constant": true,
      "inputs": [
        {
          "name": "_productId",
          "type": "uint256"
        }
      ],
      "name": "supplyOf",
      "outputs": [
        {
          "name": "",
          "type": "uint256"
        }
      ],
      "payable": false,
      "stateMutability": "view",
      "type": "function"
    },
    {
      "constant": true,
      "inputs": [
        {
          "name": "_productId",
          "type": "uint256"
        }
      ],
      "name": "amountSold",
      "outputs": [
        {
          "name": "",
          "type": "uint256"
        }
      ],
      "payable": false,
      "stateMutability": "view",
      "type": "function"
    },
    {
      "constant": true,
      "inputs": [
        {
          "name": "_productId",
          "type": "uint256"
        }
      ],
      "name": "intervalOf",
      "outputs": [
        {
          "name": "",
          "type": "uint256"
        }
      ],
      "payable": false,
      "stateMutability": "view",
      "type": "function"
    },
    {
      "constant": true,
      "inputs": [
        {
          "name": "_productId",
          "type": "uint256"
        }
      ],
      "name": "isRenewable",
      "outputs": [
        {
          "name": "",
          "type": "bool"
        }
      ],
      "payable": false,
      "stateMutability": "view",
      "type": "function"
    },
    {
      "constant": false,
      "inputs": [
        {
          "name": "_id",
          "type": "uint256"
        },
        {
          "name": "_price",
          "type": "uint256"
        },
        {
          "name": "_available",
          "type": "uint256"
        },
        {
          "name": "_initialSupply",
          "type": "uint256"
        },
        {
          "name": "_interval",
          "type": "uint256"
        },
        {
          "name": "_renewable",
          "type": "bool"
        }
      ],
      "name": "registerProduct",
      "outputs": [],
      "payable": false,
      "stateMutability": "nonpayable",
      "type": "function"
    }
  ],
  "bytecode": "0x608060405234801561001057600080fd5b50610d8a806100206000396000f3006080604052600436106100fc576000357c0100000000000000000000000000000000000000000000000000000000900463ffffffff1680632895d75914610101578063380c7a67146101425780633ff641951461017557806355ef3cef146101d65780636f1ee18d146102175780637368a8ce146102845780637acc0b20146102b557806383197ef0146103245780638806792f1461033b578063959a8dd91461037c578063a87430ba146103d3578063b369af7114610432578063b9186d7d14610473578063c2bc2efc146104b4578063cb51bba914610513578063cde317af14610554578063f47cc73114610599578063f6a3d24e146105fa575b600080fd5b34801561010d57600080fd5b5061012c60048036038101908080359060200190929190505050610655565b6040518082815260200191505060405180910390f35b34801561014e57600080fd5b50610157610675565b60405180826000191660001916815260200191505060405180910390f35b34801561018157600080fd5b506101d460048036038101908080359060200190929190803590602001909291908035906020019092919080359060200190929190803590602001909291908035151590602001909291905050506106cf565b005b3480156101e257600080fd5b50610201600480360381019080803590602001909291905050506106f6565b6040518082815260200191505060405180910390f35b34801561022357600080fd5b5061024260048036038101908080359060200190929190505050610716565b604051808273ffffffffffffffffffffffffffffffffffffffff1673ffffffffffffffffffffffffffffffffffffffff16815260200191505060405180910390f35b34801561029057600080fd5b506102b36004803603810190808035600019169060200190929190505050610749565b005b3480156102c157600080fd5b506102e0600480360381019080803590602001909291905050506107e9565b604051808881526020018781526020018681526020018581526020018481526020018381526020018215151515815260200197505050505050505060405180910390f35b34801561033057600080fd5b50610339610838565b005b34801561034757600080fd5b50610366600480360381019080803590602001909291905050506108d3565b6040518082815260200191505060405180910390f35b34801561038857600080fd5b506103bd600480360381019080803573ffffffffffffffffffffffffffffffffffffffff1690602001909291905050506108f3565b6040518082815260200191505060405180910390f35b3480156103df57600080fd5b50610414600480360381019080803573ffffffffffffffffffffffffffffffffffffffff16906020019092919050505061090b565b60405180826000191660001916815260200191505060405180910390f35b34801561043e57600080fd5b5061045d60048036038101908080359060200190929190505050610923565b6040518082815260200191505060405180910390f35b34801561047f57600080fd5b5061049e60048036038101908080359060200190929190505050610943565b6040518082815260200191505060405180910390f35b3480156104c057600080fd5b506104f5600480360381019080803573ffffffffffffffffffffffffffffffffffffffff169060200190929190505050610963565b60405180826000191660001916815260200191505060405180910390f35b34801561051f57600080fd5b5061053e600480360381019080803590602001909291905050506109bf565b6040518082815260200191505060405180910390f35b34801561056057600080fd5b5061057f600480360381019080803590602001909291905050506109e2565b604051808215151515815260200191505060405180910390f35b3480156105a557600080fd5b506105e4600480360381019080803573ffffffffffffffffffffffffffffffffffffffff16906020019092919080359060200190929190505050610a0f565b6040518082815260200191505060405180910390f35b34801561060657600080fd5b5061063b600480360381019080803573ffffffffffffffffffffffffffffffffffffffff169060200190929190505050610a34565b604051808215151515815260200191505060405180910390f35b600060036000838152602001908152602001600020600401549050919050565b600061068033610a34565b151561068b57600080fd5b6000803373ffffffffffffffffffffffffffffffffffffffff1673ffffffffffffffffffffffffffffffffffffffff16815260200190815260200160002054905090565b8284111515156106de57600080fd5b6106ee8686868660008787610a8a565b505050505050565b600060036000838152602001908152602001600020600201549050919050565b60046020528060005260406000206000915054906101000a900473ffffffffffffffffffffffffffffffffffffffff1681565b806000803373ffffffffffffffffffffffffffffffffffffffff1673ffffffffffffffffffffffffffffffffffffffff16815260200190815260200160002081600019169055503373ffffffffffffffffffffffffffffffffffffffff167f18ec7dd8c4d713eb3c2e0c61825f878a47e207600626611c5bc15009c743b4b68260405180826000191660001916815260200191505060405180910390a250565b60036020528060005260406000206000915090508060000154908060010154908060020154908060030154908060040154908060050154908060060160009054906101000a900460ff16905087565b61084133610a34565b151561084c57600080fd5b6000803373ffffffffffffffffffffffffffffffffffffffff1673ffffffffffffffffffffffffffffffffffffffff168152602001908152602001600020600090553373ffffffffffffffffffffffffffffffffffffffff167f36539d9970f057e4d26f828835b69fcfff15ff997f804dace8aed405cb98455f60405160405180910390a2565b600060036000838152602001908152602001600020600301549050919050565b60026020528060005260406000206000915090505481565b60006020528060005260406000206000915090505481565b600060036000838152602001908152602001600020600501549050919050565b600060036000838152602001908152602001600020600101549050919050565b600061096e82610a34565b151561097957600080fd5b6000808373ffffffffffffffffffffffffffffffffffffffff1673ffffffffffffffffffffffffffffffffffffffff168152602001908152602001600020549050919050565b6001818154811015156109ce57fe5b906000526020600020016000915090505481565b60006003600083815260200190815260200160002060060160009054906101000a900460ff169050919050565b6005602052816000526040600020602052806000526040600020600091509150505481565b600080600102600019166000808473ffffffffffffffffffffffffffffffffffffffff1673ffffffffffffffffffffffffffffffffffffffff168152602001908152602001600020546000191614159050919050565b610a92610d1e565b610a9b88610cfc565b1515610b0f576040517f08c379a00000000000000000000000000000000000000000000000000000000081526004018080602001828103825260168152602001807f50726f6475637420646f6573206e6f742065786973740000000000000000000081525060200191505060405180910390fd5b60e0604051908101604052808981526020018881526020018781526020018681526020018581526020018481526020018315158152509050600188908060018154018082558091505090600182039060005260206000200160009091929091909150555080600360008a8152602001908152602001600020600082015181600001556020820151816001015560408201518160020155606082015181600301556080820151816004015560a0820151816005015560c08201518160060160006101000a81548160ff02191690831515021790555090505033600460008a815260200190815260200160002060006101000a81548173ffffffffffffffffffffffffffffffffffffffff021916908373ffffffffffffffffffffffffffffffffffffffff160217905550600260003373ffffffffffffffffffffffffffffffffffffffff1673ffffffffffffffffffffffffffffffffffffffff168152602001908152602001600020600081548092919060010191905055507f59602036a4d5ddc6d26a204732c88deed66e3cbd4e5bd29fb7d85ca6eca3b21288888888888888604051808881526020018781526020018681526020018581526020018481526020018381526020018215151515815260200197505050505050505060405180910390a15050505050505050565b6000806003600084815260200190815260200160002060000154149050919050565b60e06040519081016040528060008152602001600081526020016000815260200160008152602001600081526020016000815260200160001515815250905600a165627a7a72305820502318ac1874593086c77523f18e4348abb2224ed973deebbaf2ec4d1baa2b700029",
  "source": "pragma solidity ^0.4.15;\r\n\r\nimport \"./Users.sol\";\r\n\r\ncontract ProductManager is Users {\r\n    struct Product {\r\n        uint256 id;\r\n        uint256 price;\r\n        uint256 available;\r\n        uint256 supply;\r\n        uint256 sold;\r\n        uint256 interval;\r\n        bool renewable;\r\n    }\r\n\r\n    uint256[] public productIds; \r\n\r\n\r\n    mapping (address => uint256) public vendorProductCount;\r\n    \r\n\r\n    mapping (uint256 => Product) public products;\r\n    mapping (uint256 => address) public productIdToVendor;\r\n\r\n    mapping (address => mapping(uint256 => uint256)) public ownerToProductCount;\r\n\r\n    event ProductCreated(uint256 productId, uint256 price, uint256 available, uint256 supply, uint256 sold, uint256 interval, bool renewable);\r\n    event ProductBought(uint256 productId, address vendor, address buyer);\r\n\r\n\r\n    modifier onlyVendor(uint256 _id) {\r\n        require(msg.sender == productIdToVendor[_id], \"Sender is not the vendor of this product\");\r\n        _;\r\n    }\r\n\r\n    function priceOf(uint256 _productId) public view returns (uint256) {\r\n        return products[_productId].price;\r\n    }\r\n\r\n    function availableAmountOf(uint256 _productId) public view returns (uint256) {\r\n        return products[_productId].available;\r\n    }\r\n\r\n    function supplyOf(uint256 _productId) public view returns (uint256) {\r\n        return products[_productId].supply;\r\n    }\r\n\r\n    function amountSold(uint256 _productId) public view returns (uint256) {\r\n        return products[_productId].sold;\r\n    }\r\n\r\n    function intervalOf(uint256 _productId) public view returns (uint256) {\r\n        return products[_productId].interval;\r\n    }\r\n\r\n    function isRenewable(uint256 _productId) public view returns (bool) {\r\n        return products[_productId].renewable;\r\n    }\r\n\r\n    function _productExists(uint256 _productId) internal view returns (bool) {\r\n        return (products[_productId].id != 0);\r\n    } \r\n\r\n    function _productDoesNotExist(uint256 _productId) internal view returns (bool) {\r\n        return (products[_productId].id == 0);\r\n    } \r\n\r\n    function _createProduct(uint256 _id, uint256 _price, uint256 _available, \r\n            uint256 _supply, uint256 _sold, uint256 _interval, \r\n            bool _renewable) internal {\r\n        require(_productDoesNotExist(_id), \"Product does not exist\");\r\n        Product memory product = Product(_id, _price, _available, _supply, _sold, _interval, _renewable);\r\n        productIds.push(_id);\r\n        products[_id] = product;\r\n        productIdToVendor[_id] = msg.sender;\r\n        vendorProductCount[msg.sender]++;\r\n        emit ProductCreated(_id, _price, _available, _supply, _sold, _interval, _renewable);\r\n    }\r\n\r\n    \r\n    function registerProduct(uint256 _id, uint256 _price, uint256 _available, uint256 _initialSupply, uint256 _interval, bool _renewable) public {\r\n        require(_available <= _initialSupply);\r\n        _createProduct(_id, _price, _available, _initialSupply, 0, _interval, _renewable);\r\n    }\r\n\r\n    \r\n    function _buyProduct(uint256 _productId, address _buyer) internal {\r\n        require(availableAmountOf(_productId) > 0, \"Not enough stock available\");\r\n        Product product = products[_productId];\r\n        product.supply--;\r\n        product.available--;\r\n        product.sold++;\r\n        ownerToProductCount[_buyer][_productId]++;\r\n        emit ProductBought(_productId, productIdToVendor[_productId], _buyer);\r\n    }\r\n    \r\n\r\n\r\n  \r\n}",
  "sourcePath": "C:\\Users\\Jules\\Pictures\\UPD\\Y4A\\cs198\\DRMblockchain\\contracts\\ProductManager.sol",
  "compiler": {
    "name": "solc",
    "version": "0.4.24+commit.e67f0147.Emscripten.clang"
  },
  "schemaVersion": "2.0.1",
  "updatedAt": "2018-10-29T09:13:24.021Z"
}