{
  "contractName": "Users",
  "abi": [
    {
      "constant": true,
      "inputs": [
        {
          "name": "",
          "type": "address"
        }
      ],
      "name": "users",
      "outputs": [
        {
          "name": "",
          "type": "bytes32"
        }
      ],
      "payable": false,
      "stateMutability": "view",
      "type": "function"
    },
    {
      "anonymous": false,
      "inputs": [
        {
          "indexed": true,
          "name": "_address",
          "type": "address"
        },
        {
          "indexed": false,
          "name": "_pseudo",
          "type": "bytes32"
        }
      ],
      "name": "UserCreated",
      "type": "event"
    },
    {
      "anonymous": false,
      "inputs": [
        {
          "indexed": true,
          "name": "_address",
          "type": "address"
        }
      ],
      "name": "UserDestroyed",
      "type": "event"
    },
    {
      "constant": true,
      "inputs": [
        {
          "name": "_address",
          "type": "address"
        }
      ],
      "name": "exists",
      "outputs": [
        {
          "name": "_exists",
          "type": "bool"
        }
      ],
      "payable": false,
      "stateMutability": "view",
      "type": "function"
    },
    {
      "constant": true,
      "inputs": [],
      "name": "authenticate",
      "outputs": [
        {
          "name": "_pseudo",
          "type": "bytes32"
        }
      ],
      "payable": false,
      "stateMutability": "view",
      "type": "function"
    },
    {
      "constant": false,
      "inputs": [
        {
          "name": "_pseudo",
          "type": "bytes32"
        }
      ],
      "name": "create",
      "outputs": [],
      "payable": false,
      "stateMutability": "nonpayable",
      "type": "function"
    },
    {
      "constant": false,
      "inputs": [],
      "name": "destroy",
      "outputs": [],
      "payable": false,
      "stateMutability": "nonpayable",
      "type": "function"
    },
    {
      "constant": true,
      "inputs": [
        {
          "name": "_address",
          "type": "address"
        }
      ],
      "name": "get",
      "outputs": [
        {
          "name": "_pseudo",
          "type": "bytes32"
        }
      ],
      "payable": false,
      "stateMutability": "view",
      "type": "function"
    }
  ],
  "bytecode": "0x608060405234801561001057600080fd5b506102d7806100206000396000f3006080604052600436106100775763ffffffff7c0100000000000000000000000000000000000000000000000000000000600035041663380c7a67811461007c5780637368a8ce146100a357806383197ef0146100bd578063a87430ba146100d2578063c2bc2efc14610100578063f6a3d24e1461012e575b600080fd5b34801561008857600080fd5b50610091610170565b60408051918252519081900360200190f35b3480156100af57600080fd5b506100bb60043561019a565b005b3480156100c957600080fd5b506100bb6101e2565b3480156100de57600080fd5b5061009173ffffffffffffffffffffffffffffffffffffffff60043516610230565b34801561010c57600080fd5b5061009173ffffffffffffffffffffffffffffffffffffffff60043516610242565b34801561013a57600080fd5b5061015c73ffffffffffffffffffffffffffffffffffffffff60043516610281565b604080519115158252519081900360200190f35b600061017b33610281565b151561018657600080fd5b503360009081526020819052604090205490565b3360008181526020818152604091829020849055815184815291517f18ec7dd8c4d713eb3c2e0c61825f878a47e207600626611c5bc15009c743b4b69281900390910190a250565b6101eb33610281565b15156101f657600080fd5b33600081815260208190526040808220829055517f36539d9970f057e4d26f828835b69fcfff15ff997f804dace8aed405cb98455f9190a2565b60006020819052908152604090205481565b600061024d82610281565b151561025857600080fd5b5073ffffffffffffffffffffffffffffffffffffffff1660009081526020819052604090205490565b73ffffffffffffffffffffffffffffffffffffffff166000908152602081905260409020541515905600a165627a7a7230582088513758fb80be45a80ef38d3c7c1e9c25a8c5a9de99442527637eacd03522b20029",
  "source": "pragma solidity ^0.4.15;\r\n\r\ncontract Users {\r\n\r\n  mapping(address => bytes32) public users;\r\n\r\n  event UserCreated(address indexed _address, bytes32 _pseudo);\r\n  event UserDestroyed(address indexed _address);\r\n\r\n  function exists (address _address) public constant returns (bool _exists) {\r\n    return (users[_address] != bytes32(0));\r\n  }\r\n\r\n  function authenticate () public constant returns (bytes32 _pseudo) {\r\n    require(exists(msg.sender));\r\n    return (users[msg.sender]);\r\n  }\r\n\r\n  function create (bytes32 _pseudo) public {\r\n    users[msg.sender] = _pseudo ;\r\n    UserCreated(msg.sender, _pseudo);\r\n  }\r\n\r\n  function destroy () public {\r\n    require(exists(msg.sender));\r\n    delete users[msg.sender];\r\n    UserDestroyed(msg.sender);\r\n  }\r\n\r\n  function get (address _address) public constant returns(bytes32 _pseudo) {\r\n    require(exists(_address));\r\n    return (users[_address]);\r\n  }\r\n\r\n}\r\n",
  "sourcePath": "C:\\Users\\Jules\\Pictures\\UPD\\Y4A\\cs198\\DRMblockchain\\contracts\\Users.sol",
  "compiler": {
    "name": "solc",
    "version": "0.4.24+commit.e67f0147.Emscripten.clang"
  },
  "schemaVersion": "2.0.1",
  "updatedAt": "2018-10-29T10:28:41.067Z"
}